{
  "contractName": "Blocks",
  "abi": [
    {
      "inputs": [],
      "stateMutability": "nonpayable",
      "type": "constructor"
    },
    {
      "anonymous": false,
      "inputs": [
        {
          "indexed": true,
          "internalType": "address",
          "name": "account",
          "type": "address"
        },
        {
          "indexed": true,
          "internalType": "address",
          "name": "operator",
          "type": "address"
        },
        {
          "indexed": false,
          "internalType": "bool",
          "name": "approved",
          "type": "bool"
        }
      ],
      "name": "ApprovalForAll",
      "type": "event"
    },
    {
      "anonymous": false,
      "inputs": [
        {
          "indexed": true,
          "internalType": "address",
          "name": "operator",
          "type": "address"
        },
        {
          "indexed": true,
          "internalType": "address",
          "name": "from",
          "type": "address"
        },
        {
          "indexed": true,
          "internalType": "address",
          "name": "to",
          "type": "address"
        },
        {
          "indexed": false,
          "internalType": "uint256[]",
          "name": "ids",
          "type": "uint256[]"
        },
        {
          "indexed": false,
          "internalType": "uint256[]",
          "name": "values",
          "type": "uint256[]"
        }
      ],
      "name": "TransferBatch",
      "type": "event"
    },
    {
      "anonymous": false,
      "inputs": [
        {
          "indexed": true,
          "internalType": "address",
          "name": "operator",
          "type": "address"
        },
        {
          "indexed": true,
          "internalType": "address",
          "name": "from",
          "type": "address"
        },
        {
          "indexed": true,
          "internalType": "address",
          "name": "to",
          "type": "address"
        },
        {
          "indexed": false,
          "internalType": "uint256",
          "name": "id",
          "type": "uint256"
        },
        {
          "indexed": false,
          "internalType": "uint256",
          "name": "value",
          "type": "uint256"
        }
      ],
      "name": "TransferSingle",
      "type": "event"
    },
    {
      "anonymous": false,
      "inputs": [
        {
          "indexed": false,
          "internalType": "string",
          "name": "value",
          "type": "string"
        },
        {
          "indexed": true,
          "internalType": "uint256",
          "name": "id",
          "type": "uint256"
        }
      ],
      "name": "URI",
      "type": "event"
    },
    {
      "inputs": [],
      "name": "GOLD",
      "outputs": [
        {
          "internalType": "uint256",
          "name": "",
          "type": "uint256"
        }
      ],
      "stateMutability": "view",
      "type": "function",
      "constant": true
    },
    {
      "inputs": [],
      "name": "SHIELD",
      "outputs": [
        {
          "internalType": "uint256",
          "name": "",
          "type": "uint256"
        }
      ],
      "stateMutability": "view",
      "type": "function",
      "constant": true
    },
    {
      "inputs": [],
      "name": "SILVER",
      "outputs": [
        {
          "internalType": "uint256",
          "name": "",
          "type": "uint256"
        }
      ],
      "stateMutability": "view",
      "type": "function",
      "constant": true
    },
    {
      "inputs": [],
      "name": "SWORD",
      "outputs": [
        {
          "internalType": "uint256",
          "name": "",
          "type": "uint256"
        }
      ],
      "stateMutability": "view",
      "type": "function",
      "constant": true
    },
    {
      "inputs": [],
      "name": "THORS_HAMMER",
      "outputs": [
        {
          "internalType": "uint256",
          "name": "",
          "type": "uint256"
        }
      ],
      "stateMutability": "view",
      "type": "function",
      "constant": true
    },
    {
      "inputs": [
        {
          "internalType": "address",
          "name": "account",
          "type": "address"
        },
        {
          "internalType": "uint256",
          "name": "id",
          "type": "uint256"
        }
      ],
      "name": "balanceOf",
      "outputs": [
        {
          "internalType": "uint256",
          "name": "",
          "type": "uint256"
        }
      ],
      "stateMutability": "view",
      "type": "function",
      "constant": true
    },
    {
      "inputs": [
        {
          "internalType": "address[]",
          "name": "accounts",
          "type": "address[]"
        },
        {
          "internalType": "uint256[]",
          "name": "ids",
          "type": "uint256[]"
        }
      ],
      "name": "balanceOfBatch",
      "outputs": [
        {
          "internalType": "uint256[]",
          "name": "",
          "type": "uint256[]"
        }
      ],
      "stateMutability": "view",
      "type": "function",
      "constant": true
    },
    {
      "inputs": [
        {
          "internalType": "uint256",
          "name": "",
          "type": "uint256"
        }
      ],
      "name": "blockers",
      "outputs": [
        {
          "internalType": "address",
          "name": "",
          "type": "address"
        }
      ],
      "stateMutability": "view",
      "type": "function",
      "constant": true
    },
    {
      "inputs": [
        {
          "internalType": "address",
          "name": "account",
          "type": "address"
        },
        {
          "internalType": "address",
          "name": "operator",
          "type": "address"
        }
      ],
      "name": "isApprovedForAll",
      "outputs": [
        {
          "internalType": "bool",
          "name": "",
          "type": "bool"
        }
      ],
      "stateMutability": "view",
      "type": "function",
      "constant": true
    },
    {
      "inputs": [
        {
          "internalType": "address",
          "name": "from",
          "type": "address"
        },
        {
          "internalType": "address",
          "name": "to",
          "type": "address"
        },
        {
          "internalType": "uint256[]",
          "name": "ids",
          "type": "uint256[]"
        },
        {
          "internalType": "uint256[]",
          "name": "amounts",
          "type": "uint256[]"
        },
        {
          "internalType": "bytes",
          "name": "data",
          "type": "bytes"
        }
      ],
      "name": "safeBatchTransferFrom",
      "outputs": [],
      "stateMutability": "nonpayable",
      "type": "function"
    },
    {
      "inputs": [
        {
          "internalType": "address",
          "name": "from",
          "type": "address"
        },
        {
          "internalType": "address",
          "name": "to",
          "type": "address"
        },
        {
          "internalType": "uint256",
          "name": "id",
          "type": "uint256"
        },
        {
          "internalType": "uint256",
          "name": "amount",
          "type": "uint256"
        },
        {
          "internalType": "bytes",
          "name": "data",
          "type": "bytes"
        }
      ],
      "name": "safeTransferFrom",
      "outputs": [],
      "stateMutability": "nonpayable",
      "type": "function"
    },
    {
      "inputs": [
        {
          "internalType": "address",
          "name": "operator",
          "type": "address"
        },
        {
          "internalType": "bool",
          "name": "approved",
          "type": "bool"
        }
      ],
      "name": "setApprovalForAll",
      "outputs": [],
      "stateMutability": "nonpayable",
      "type": "function"
    },
    {
      "inputs": [
        {
          "internalType": "bytes4",
          "name": "interfaceId",
          "type": "bytes4"
        }
      ],
      "name": "supportsInterface",
      "outputs": [
        {
          "internalType": "bool",
          "name": "",
          "type": "bool"
        }
      ],
      "stateMutability": "view",
      "type": "function",
      "constant": true
    },
    {
      "inputs": [
        {
          "internalType": "uint256",
          "name": "",
          "type": "uint256"
        }
      ],
      "name": "uri",
      "outputs": [
        {
          "internalType": "string",
          "name": "",
          "type": "string"
        }
      ],
      "stateMutability": "view",
      "type": "function",
      "constant": true
    },
    {
      "inputs": [
        {
          "internalType": "uint256",
          "name": "blockId",
          "type": "uint256"
        },
        {
          "internalType": "bytes",
          "name": "data",
          "type": "bytes"
        }
      ],
      "name": "mintABlock",
      "outputs": [
        {
          "internalType": "uint256",
          "name": "",
          "type": "uint256"
        }
      ],
      "stateMutability": "nonpayable",
      "type": "function"
    },
    {
      "inputs": [],
      "name": "getBlockers",
      "outputs": [
        {
          "internalType": "address[16]",
          "name": "",
          "type": "address[16]"
        }
      ],
      "stateMutability": "view",
      "type": "function",
      "constant": true
    }
  ],
  "bytecode": "0x60806040523480156200001157600080fd5b5060405180606001604052806027815260200162003003602791396200003d816200004460201b60201c565b50620003ba565b8060029081620000559190620002d3565b5050565b600081519050919050565b7f4e487b7100000000000000000000000000000000000000000000000000000000600052604160045260246000fd5b7f4e487b7100000000000000000000000000000000000000000000000000000000600052602260045260246000fd5b60006002820490506001821680620000db57607f821691505b602082108103620000f157620000f062000093565b5b50919050565b60008190508160005260206000209050919050565b60006020601f8301049050919050565b600082821b905092915050565b6000600883026200015b7fffffffffffffffffffffffffffffffffffffffffffffffffffffffffffffffff826200011c565b6200016786836200011c565b95508019841693508086168417925050509392505050565b6000819050919050565b6000819050919050565b6000620001b4620001ae620001a8846200017f565b62000189565b6200017f565b9050919050565b6000819050919050565b620001d08362000193565b620001e8620001df82620001bb565b84845462000129565b825550505050565b600090565b620001ff620001f0565b6200020c818484620001c5565b505050565b5b81811015620002345762000228600082620001f5565b60018101905062000212565b5050565b601f82111562000283576200024d81620000f7565b62000258846200010c565b8101602085101562000268578190505b6200028062000277856200010c565b83018262000211565b50505b505050565b600082821c905092915050565b6000620002a86000198460080262000288565b1980831691505092915050565b6000620002c3838362000295565b9150826002028217905092915050565b620002de8262000059565b67ffffffffffffffff811115620002fa57620002f962000064565b5b620003068254620000c2565b6200031382828562000238565b600060209050601f8311600181146200034b576000841562000336578287015190505b620003428582620002b5565b865550620003b2565b601f1984166200035b86620000f7565b60005b8281101562000385578489015182556001820191506020850194506020810190506200035e565b86831015620003a55784890151620003a1601f89168262000295565b8355505b6001600288020188555050505b505050505050565b612c3980620003ca6000396000f3fe608060405234801561001057600080fd5b50600436106100ff5760003560e01c8063a22cb46511610097578063e985e9c511610066578063e985e9c5146102c2578063eb9504fa146102f2578063f242432a14610310578063f576a4f01461032c576100ff565b8063a22cb4651461023a578063b0667f8a14610256578063d562e20414610286578063e3e55f08146102a4576100ff565b80632eb2c2d6116100d35780632eb2c2d6146101b25780633e4bee38146101ce5780634e1273f4146101ec5780635b2725ed1461021c576100ff565b8062fdd58e1461010457806301ffc9a7146101345780630e89341c1461016457806313dc989f14610194575b600080fd5b61011e60048036038101906101199190611865565b61035c565b60405161012b91906118b4565b60405180910390f35b61014e60048036038101906101499190611927565b610424565b60405161015b919061196f565b60405180910390f35b61017e6004803603810190610179919061198a565b610506565b60405161018b9190611a50565b60405180910390f35b61019c61059a565b6040516101a991906118b4565b60405180910390f35b6101cc60048036038101906101c79190611c6f565b61059f565b005b6101d6610640565b6040516101e391906118b4565b60405180910390f35b61020660048036038101906102019190611e01565b610645565b6040516102139190611f37565b60405180910390f35b61022461075e565b60405161023191906118b4565b60405180910390f35b610254600480360381019061024f9190611f85565b610763565b005b610270600480360381019061026b9190611fc5565b610779565b60405161027d91906118b4565b60405180910390f35b61028e6107ff565b60405161029b91906118b4565b60405180910390f35b6102ac610804565b6040516102b991906118b4565b60405180910390f35b6102dc60048036038101906102d79190612021565b610809565b6040516102e9919061196f565b60405180910390f35b6102fa61089d565b604051610307919061210c565b60405180910390f35b61032a60048036038101906103259190612128565b61091e565b005b6103466004803603810190610341919061198a565b6109bf565b60405161035391906121ce565b60405180910390f35b60008073ffffffffffffffffffffffffffffffffffffffff168373ffffffffffffffffffffffffffffffffffffffff16036103cc576040517f08c379a00000000000000000000000000000000000000000000000000000000081526004016103c39061225b565b60405180910390fd5b60008083815260200190815260200160002060008473ffffffffffffffffffffffffffffffffffffffff1673ffffffffffffffffffffffffffffffffffffffff16815260200190815260200160002054905092915050565b60007fd9b67a26000000000000000000000000000000000000000000000000000000007bffffffffffffffffffffffffffffffffffffffffffffffffffffffff1916827bffffffffffffffffffffffffffffffffffffffffffffffffffffffff191614806104ef57507f0e89341c000000000000000000000000000000000000000000000000000000007bffffffffffffffffffffffffffffffffffffffffffffffffffffffff1916827bffffffffffffffffffffffffffffffffffffffffffffffffffffffff1916145b806104ff57506104fe826109f5565b5b9050919050565b606060028054610515906122aa565b80601f0160208091040260200160405190810160405280929190818152602001828054610541906122aa565b801561058e5780601f106105635761010080835404028352916020019161058e565b820191906000526020600020905b81548152906001019060200180831161057157829003601f168201915b50505050509050919050565b600381565b6105a7610a5f565b73ffffffffffffffffffffffffffffffffffffffff168573ffffffffffffffffffffffffffffffffffffffff1614806105ed57506105ec856105e7610a5f565b610809565b5b61062c576040517f08c379a00000000000000000000000000000000000000000000000000000000081526004016106239061234d565b60405180910390fd5b6106398585858585610a67565b5050505050565b600081565b6060815183511461068b576040517f08c379a0000000000000000000000000000000000000000000000000000000008152600401610682906123df565b60405180910390fd5b6000835167ffffffffffffffff8111156106a8576106a7611a77565b5b6040519080825280602002602001820160405280156106d65781602001602082028036833780820191505090505b50905060005b8451811015610753576107238582815181106106fb576106fa6123ff565b5b6020026020010151858381518110610716576107156123ff565b5b602002602001015161035c565b828281518110610736576107356123ff565b5b6020026020010181815250508061074c9061245d565b90506106dc565b508091505092915050565b600481565b61077561076e610a5f565b8383610d88565b5050565b600080831015801561078c5750600f8311155b61079557600080fd5b33600384601081106107aa576107a96123ff565b5b0160006101000a81548173ffffffffffffffffffffffffffffffffffffffff021916908373ffffffffffffffffffffffffffffffffffffffff1602179055506107f63384600185610ef4565b82905092915050565b600281565b600181565b6000600160008473ffffffffffffffffffffffffffffffffffffffff1673ffffffffffffffffffffffffffffffffffffffff16815260200190815260200160002060008373ffffffffffffffffffffffffffffffffffffffff1673ffffffffffffffffffffffffffffffffffffffff16815260200190815260200160002060009054906101000a900460ff16905092915050565b6108a561179a565b6003601080602002604051908101604052809291908260108015610914576020028201915b8160009054906101000a900473ffffffffffffffffffffffffffffffffffffffff1673ffffffffffffffffffffffffffffffffffffffff16815260200190600101908083116108ca575b5050505050905090565b610926610a5f565b73ffffffffffffffffffffffffffffffffffffffff168573ffffffffffffffffffffffffffffffffffffffff16148061096c575061096b85610966610a5f565b610809565b5b6109ab576040517f08c379a00000000000000000000000000000000000000000000000000000000081526004016109a290612517565b60405180910390fd5b6109b885858585856110a4565b5050505050565b600381601081106109cf57600080fd5b016000915054906101000a900473ffffffffffffffffffffffffffffffffffffffff1681565b60007f01ffc9a7000000000000000000000000000000000000000000000000000000007bffffffffffffffffffffffffffffffffffffffffffffffffffffffff1916827bffffffffffffffffffffffffffffffffffffffffffffffffffffffff1916149050919050565b600033905090565b8151835114610aab576040517f08c379a0000000000000000000000000000000000000000000000000000000008152600401610aa2906125a9565b60405180910390fd5b600073ffffffffffffffffffffffffffffffffffffffff168473ffffffffffffffffffffffffffffffffffffffff1603610b1a576040517f08c379a0000000000000000000000000000000000000000000000000000000008152600401610b119061263b565b60405180910390fd5b6000610b24610a5f565b9050610b3481878787878761133f565b60005b8451811015610ce5576000858281518110610b5557610b546123ff565b5b602002602001015190506000858381518110610b7457610b736123ff565b5b60200260200101519050600080600084815260200190815260200160002060008b73ffffffffffffffffffffffffffffffffffffffff1673ffffffffffffffffffffffffffffffffffffffff16815260200190815260200160002054905081811015610c15576040517f08c379a0000000000000000000000000000000000000000000000000000000008152600401610c0c906126cd565b60405180910390fd5b81810360008085815260200190815260200160002060008c73ffffffffffffffffffffffffffffffffffffffff1673ffffffffffffffffffffffffffffffffffffffff168152602001908152602001600020819055508160008085815260200190815260200160002060008b73ffffffffffffffffffffffffffffffffffffffff1673ffffffffffffffffffffffffffffffffffffffff1681526020019081526020016000206000828254610cca91906126ed565b9250508190555050505080610cde9061245d565b9050610b37565b508473ffffffffffffffffffffffffffffffffffffffff168673ffffffffffffffffffffffffffffffffffffffff168273ffffffffffffffffffffffffffffffffffffffff167f4a39dc06d4c0dbc64b70af90fd698a233a518aa5d07e595d983b8c0526c8f7fb8787604051610d5c929190612743565b60405180910390a4610d72818787878787611347565b610d8081878787878761134f565b505050505050565b8173ffffffffffffffffffffffffffffffffffffffff168373ffffffffffffffffffffffffffffffffffffffff1603610df6576040517f08c379a0000000000000000000000000000000000000000000000000000000008152600401610ded906127ec565b60405180910390fd5b80600160008573ffffffffffffffffffffffffffffffffffffffff1673ffffffffffffffffffffffffffffffffffffffff16815260200190815260200160002060008473ffffffffffffffffffffffffffffffffffffffff1673ffffffffffffffffffffffffffffffffffffffff16815260200190815260200160002060006101000a81548160ff0219169083151502179055508173ffffffffffffffffffffffffffffffffffffffff168373ffffffffffffffffffffffffffffffffffffffff167f17307eab39ab6107e8899845ad3d59bd9653f200f220920489ca2b5937696c3183604051610ee7919061196f565b60405180910390a3505050565b600073ffffffffffffffffffffffffffffffffffffffff168473ffffffffffffffffffffffffffffffffffffffff1603610f63576040517f08c379a0000000000000000000000000000000000000000000000000000000008152600401610f5a9061287e565b60405180910390fd5b6000610f6d610a5f565b90506000610f7a85611526565b90506000610f8785611526565b9050610f988360008985858961133f565b8460008088815260200190815260200160002060008973ffffffffffffffffffffffffffffffffffffffff1673ffffffffffffffffffffffffffffffffffffffff1681526020019081526020016000206000828254610ff791906126ed565b925050819055508673ffffffffffffffffffffffffffffffffffffffff16600073ffffffffffffffffffffffffffffffffffffffff168473ffffffffffffffffffffffffffffffffffffffff167fc3d58168c5ae7397731d063d5bbf3d657854427343f4c083240f7aacaa2d0f62898960405161107592919061289e565b60405180910390a461108c83600089858589611347565b61109b836000898989896115a0565b50505050505050565b600073ffffffffffffffffffffffffffffffffffffffff168473ffffffffffffffffffffffffffffffffffffffff1603611113576040517f08c379a000000000000000000000000000000000000000000000000000000000815260040161110a9061263b565b60405180910390fd5b600061111d610a5f565b9050600061112a85611526565b9050600061113785611526565b905061114783898985858961133f565b600080600088815260200190815260200160002060008a73ffffffffffffffffffffffffffffffffffffffff1673ffffffffffffffffffffffffffffffffffffffff168152602001908152602001600020549050858110156111de576040517f08c379a00000000000000000000000000000000000000000000000000000000081526004016111d5906126cd565b60405180910390fd5b85810360008089815260200190815260200160002060008b73ffffffffffffffffffffffffffffffffffffffff1673ffffffffffffffffffffffffffffffffffffffff168152602001908152602001600020819055508560008089815260200190815260200160002060008a73ffffffffffffffffffffffffffffffffffffffff1673ffffffffffffffffffffffffffffffffffffffff168152602001908152602001600020600082825461129391906126ed565b925050819055508773ffffffffffffffffffffffffffffffffffffffff168973ffffffffffffffffffffffffffffffffffffffff168573ffffffffffffffffffffffffffffffffffffffff167fc3d58168c5ae7397731d063d5bbf3d657854427343f4c083240f7aacaa2d0f628a8a60405161131092919061289e565b60405180910390a4611326848a8a86868a611347565b611334848a8a8a8a8a6115a0565b505050505050505050565b505050505050565b505050505050565b61136e8473ffffffffffffffffffffffffffffffffffffffff16611777565b1561151e578373ffffffffffffffffffffffffffffffffffffffff1663bc197c8187878686866040518663ffffffff1660e01b81526004016113b495949392919061291c565b6020604051808303816000875af19250505080156113f057506040513d601f19601f820116820180604052508101906113ed9190612999565b60015b611495576113fc6129d3565b806308c379a00361145857506114106129f5565b8061141b575061145a565b806040517f08c379a000000000000000000000000000000000000000000000000000000000815260040161144f9190611a50565b60405180910390fd5b505b6040517f08c379a000000000000000000000000000000000000000000000000000000000815260040161148c90612af7565b60405180910390fd5b63bc197c8160e01b7bffffffffffffffffffffffffffffffffffffffffffffffffffffffff1916817bffffffffffffffffffffffffffffffffffffffffffffffffffffffff19161461151c576040517f08c379a000000000000000000000000000000000000000000000000000000000815260040161151390612b89565b60405180910390fd5b505b505050505050565b60606000600167ffffffffffffffff81111561154557611544611a77565b5b6040519080825280602002602001820160405280156115735781602001602082028036833780820191505090505b509050828160008151811061158b5761158a6123ff565b5b60200260200101818152505080915050919050565b6115bf8473ffffffffffffffffffffffffffffffffffffffff16611777565b1561176f578373ffffffffffffffffffffffffffffffffffffffff1663f23a6e6187878686866040518663ffffffff1660e01b8152600401611605959493929190612ba9565b6020604051808303816000875af192505050801561164157506040513d601f19601f8201168201806040525081019061163e9190612999565b60015b6116e65761164d6129d3565b806308c379a0036116a957506116616129f5565b8061166c57506116ab565b806040517f08c379a00000000000000000000000000000000000000000000000000000000081526004016116a09190611a50565b60405180910390fd5b505b6040517f08c379a00000000000000000000000000000000000000000000000000000000081526004016116dd90612af7565b60405180910390fd5b63f23a6e6160e01b7bffffffffffffffffffffffffffffffffffffffffffffffffffffffff1916817bffffffffffffffffffffffffffffffffffffffffffffffffffffffff19161461176d576040517f08c379a000000000000000000000000000000000000000000000000000000000815260040161176490612b89565b60405180910390fd5b505b505050505050565b6000808273ffffffffffffffffffffffffffffffffffffffff163b119050919050565b604051806102000160405280601090602082028036833780820191505090505090565b6000604051905090565b600080fd5b600080fd5b600073ffffffffffffffffffffffffffffffffffffffff82169050919050565b60006117fc826117d1565b9050919050565b61180c816117f1565b811461181757600080fd5b50565b60008135905061182981611803565b92915050565b6000819050919050565b6118428161182f565b811461184d57600080fd5b50565b60008135905061185f81611839565b92915050565b6000806040838503121561187c5761187b6117c7565b5b600061188a8582860161181a565b925050602061189b85828601611850565b9150509250929050565b6118ae8161182f565b82525050565b60006020820190506118c960008301846118a5565b92915050565b60007fffffffff0000000000000000000000000000000000000000000000000000000082169050919050565b611904816118cf565b811461190f57600080fd5b50565b600081359050611921816118fb565b92915050565b60006020828403121561193d5761193c6117c7565b5b600061194b84828501611912565b91505092915050565b60008115159050919050565b61196981611954565b82525050565b60006020820190506119846000830184611960565b92915050565b6000602082840312156119a05761199f6117c7565b5b60006119ae84828501611850565b91505092915050565b600081519050919050565b600082825260208201905092915050565b60005b838110156119f15780820151818401526020810190506119d6565b83811115611a00576000848401525b50505050565b6000601f19601f8301169050919050565b6000611a22826119b7565b611a2c81856119c2565b9350611a3c8185602086016119d3565b611a4581611a06565b840191505092915050565b60006020820190508181036000830152611a6a8184611a17565b905092915050565b600080fd5b7f4e487b7100000000000000000000000000000000000000000000000000000000600052604160045260246000fd5b611aaf82611a06565b810181811067ffffffffffffffff82111715611ace57611acd611a77565b5b80604052505050565b6000611ae16117bd565b9050611aed8282611aa6565b919050565b600067ffffffffffffffff821115611b0d57611b0c611a77565b5b602082029050602081019050919050565b600080fd5b6000611b36611b3184611af2565b611ad7565b90508083825260208201905060208402830185811115611b5957611b58611b1e565b5b835b81811015611b825780611b6e8882611850565b845260208401935050602081019050611b5b565b5050509392505050565b600082601f830112611ba157611ba0611a72565b5b8135611bb1848260208601611b23565b91505092915050565b600080fd5b600067ffffffffffffffff821115611bda57611bd9611a77565b5b611be382611a06565b9050602081019050919050565b82818337600083830152505050565b6000611c12611c0d84611bbf565b611ad7565b905082815260208101848484011115611c2e57611c2d611bba565b5b611c39848285611bf0565b509392505050565b600082601f830112611c5657611c55611a72565b5b8135611c66848260208601611bff565b91505092915050565b600080600080600060a08688031215611c8b57611c8a6117c7565b5b6000611c998882890161181a565b9550506020611caa8882890161181a565b945050604086013567ffffffffffffffff811115611ccb57611cca6117cc565b5b611cd788828901611b8c565b935050606086013567ffffffffffffffff811115611cf857611cf76117cc565b5b611d0488828901611b8c565b925050608086013567ffffffffffffffff811115611d2557611d246117cc565b5b611d3188828901611c41565b9150509295509295909350565b600067ffffffffffffffff821115611d5957611d58611a77565b5b602082029050602081019050919050565b6000611d7d611d7884611d3e565b611ad7565b90508083825260208201905060208402830185811115611da057611d9f611b1e565b5b835b81811015611dc95780611db5888261181a565b845260208401935050602081019050611da2565b5050509392505050565b600082601f830112611de857611de7611a72565b5b8135611df8848260208601611d6a565b91505092915050565b60008060408385031215611e1857611e176117c7565b5b600083013567ffffffffffffffff811115611e3657611e356117cc565b5b611e4285828601611dd3565b925050602083013567ffffffffffffffff811115611e6357611e626117cc565b5b611e6f85828601611b8c565b9150509250929050565b600081519050919050565b600082825260208201905092915050565b6000819050602082019050919050565b611eae8161182f565b82525050565b6000611ec08383611ea5565b60208301905092915050565b6000602082019050919050565b6000611ee482611e79565b611eee8185611e84565b9350611ef983611e95565b8060005b83811015611f2a578151611f118882611eb4565b9750611f1c83611ecc565b925050600181019050611efd565b5085935050505092915050565b60006020820190508181036000830152611f518184611ed9565b905092915050565b611f6281611954565b8114611f6d57600080fd5b50565b600081359050611f7f81611f59565b92915050565b60008060408385031215611f9c57611f9b6117c7565b5b6000611faa8582860161181a565b9250506020611fbb85828601611f70565b9150509250929050565b60008060408385031215611fdc57611fdb6117c7565b5b6000611fea85828601611850565b925050602083013567ffffffffffffffff81111561200b5761200a6117cc565b5b61201785828601611c41565b9150509250929050565b60008060408385031215612038576120376117c7565b5b60006120468582860161181a565b92505060206120578582860161181a565b9150509250929050565b600060109050919050565b600081905092915050565b6000819050919050565b61208a816117f1565b82525050565b600061209c8383612081565b60208301905092915050565b6000602082019050919050565b6120be81612061565b6120c8818461206c565b92506120d382612077565b8060005b838110156121045781516120eb8782612090565b96506120f6836120a8565b9250506001810190506120d7565b505050505050565b60006102008201905061212260008301846120b5565b92915050565b600080600080600060a08688031215612144576121436117c7565b5b60006121528882890161181a565b95505060206121638882890161181a565b945050604061217488828901611850565b935050606061218588828901611850565b925050608086013567ffffffffffffffff8111156121a6576121a56117cc565b5b6121b288828901611c41565b9150509295509295909350565b6121c8816117f1565b82525050565b60006020820190506121e360008301846121bf565b92915050565b7f455243313135353a2062616c616e636520717565727920666f7220746865207a60008201527f65726f2061646472657373000000000000000000000000000000000000000000602082015250565b6000612245602b836119c2565b9150612250826121e9565b604082019050919050565b6000602082019050818103600083015261227481612238565b9050919050565b7f4e487b7100000000000000000000000000000000000000000000000000000000600052602260045260246000fd5b600060028204905060018216806122c257607f821691505b6020821081036122d5576122d461227b565b5b50919050565b7f455243313135353a207472616e736665722063616c6c6572206973206e6f742060008201527f6f776e6572206e6f7220617070726f7665640000000000000000000000000000602082015250565b60006123376032836119c2565b9150612342826122db565b604082019050919050565b600060208201905081810360008301526123668161232a565b9050919050565b7f455243313135353a206163636f756e747320616e6420696473206c656e67746860008201527f206d69736d617463680000000000000000000000000000000000000000000000602082015250565b60006123c96029836119c2565b91506123d48261236d565b604082019050919050565b600060208201905081810360008301526123f8816123bc565b9050919050565b7f4e487b7100000000000000000000000000000000000000000000000000000000600052603260045260246000fd5b7f4e487b7100000000000000000000000000000000000000000000000000000000600052601160045260246000fd5b60006124688261182f565b91507fffffffffffffffffffffffffffffffffffffffffffffffffffffffffffffffff820361249a5761249961242e565b5b600182019050919050565b7f455243313135353a2063616c6c6572206973206e6f74206f776e6572206e6f7260008201527f20617070726f7665640000000000000000000000000000000000000000000000602082015250565b60006125016029836119c2565b915061250c826124a5565b604082019050919050565b60006020820190508181036000830152612530816124f4565b9050919050565b7f455243313135353a2069647320616e6420616d6f756e7473206c656e6774682060008201527f6d69736d61746368000000000000000000000000000000000000000000000000602082015250565b60006125936028836119c2565b915061259e82612537565b604082019050919050565b600060208201905081810360008301526125c281612586565b9050919050565b7f455243313135353a207472616e7366657220746f20746865207a65726f20616460008201527f6472657373000000000000000000000000000000000000000000000000000000602082015250565b60006126256025836119c2565b9150612630826125c9565b604082019050919050565b6000602082019050818103600083015261265481612618565b9050919050565b7f455243313135353a20696e73756666696369656e742062616c616e636520666f60008201527f72207472616e7366657200000000000000000000000000000000000000000000602082015250565b60006126b7602a836119c2565b91506126c28261265b565b604082019050919050565b600060208201905081810360008301526126e6816126aa565b9050919050565b60006126f88261182f565b91506127038361182f565b9250827fffffffffffffffffffffffffffffffffffffffffffffffffffffffffffffffff038211156127385761273761242e565b5b828201905092915050565b6000604082019050818103600083015261275d8185611ed9565b905081810360208301526127718184611ed9565b90509392505050565b7f455243313135353a2073657474696e6720617070726f76616c2073746174757360008201527f20666f722073656c660000000000000000000000000000000000000000000000602082015250565b60006127d66029836119c2565b91506127e18261277a565b604082019050919050565b60006020820190508181036000830152612805816127c9565b9050919050565b7f455243313135353a206d696e7420746f20746865207a65726f2061646472657360008201527f7300000000000000000000000000000000000000000000000000000000000000602082015250565b60006128686021836119c2565b91506128738261280c565b604082019050919050565b600060208201905081810360008301526128978161285b565b9050919050565b60006040820190506128b360008301856118a5565b6128c060208301846118a5565b9392505050565b600081519050919050565b600082825260208201905092915050565b60006128ee826128c7565b6128f881856128d2565b93506129088185602086016119d3565b61291181611a06565b840191505092915050565b600060a08201905061293160008301886121bf565b61293e60208301876121bf565b81810360408301526129508186611ed9565b905081810360608301526129648185611ed9565b9050818103608083015261297881846128e3565b90509695505050505050565b600081519050612993816118fb565b92915050565b6000602082840312156129af576129ae6117c7565b5b60006129bd84828501612984565b91505092915050565b60008160e01c9050919050565b600060033d11156129f25760046000803e6129ef6000516129c6565b90505b90565b600060443d10612a8257612a076117bd565b60043d036004823e80513d602482011167ffffffffffffffff82111715612a2f575050612a82565b808201805167ffffffffffffffff811115612a4d5750505050612a82565b80602083010160043d038501811115612a6a575050505050612a82565b612a7982602001850186611aa6565b82955050505050505b90565b7f455243313135353a207472616e7366657220746f206e6f6e204552433131353560008201527f526563656976657220696d706c656d656e746572000000000000000000000000602082015250565b6000612ae16034836119c2565b9150612aec82612a85565b604082019050919050565b60006020820190508181036000830152612b1081612ad4565b9050919050565b7f455243313135353a204552433131353552656365697665722072656a6563746560008201527f6420746f6b656e73000000000000000000000000000000000000000000000000602082015250565b6000612b736028836119c2565b9150612b7e82612b17565b604082019050919050565b60006020820190508181036000830152612ba281612b66565b9050919050565b600060a082019050612bbe60008301886121bf565b612bcb60208301876121bf565b612bd860408301866118a5565b612be560608301856118a5565b8181036080830152612bf781846128e3565b9050969550505050505056fea26469706673582212206923c5f0e2e04a1d3cd20167da609c86257fd185e60aad38b003496ed5714c4664736f6c634300080f003368747470733a2f2f67616d652e6578616d706c652f6170692f6974656d2f7b69647d2e6a736f6e",
  "immutableReferences": {},
  "source": "// contracts/Blocks.sol\n// SPDX-License-Identifier: MIT\npragma solidity ^0.8.0;\n\nimport \"openzeppelin-solidity/contracts/token/ERC1155/ERC1155.sol\";\n\ncontract Blocks is ERC1155 {\n    uint256 public constant GOLD = 0;\n    uint256 public constant SILVER = 1;\n    uint256 public constant THORS_HAMMER = 2;\n    uint256 public constant SWORD = 3;\n    uint256 public constant SHIELD = 4;\n\n    constructor() ERC1155(\"https://game.example/api/item/{id}.json\") {\n        // _mint(msg.sender, GOLD, 10**18, \"\");\n        // _mint(msg.sender, SILVER, 10**27, \"\");\n        // _mint(msg.sender, THORS_HAMMER, 1, \"\");\n        // _mint(msg.sender, SWORD, 10**9, \"\");\n        // _mint(msg.sender, SHIELD, 10**9, \"\");\n    }\n\n    address[16] public blockers;\n\n    // Adopting a pet\n    function mintABlock(uint blockId, bytes memory data) public returns (uint) {\n        require(blockId >= 0 && blockId <= 15);\n\n        blockers[blockId] = msg.sender;\n\n        _mint(msg.sender, blockId, 1, data);\n\n        return blockId;\n    }\n\n    // Retrieving the adopters\n    function getBlockers() public view returns (address[16] memory) {\n        return blockers;\n    }\n}",
  "sourcePath": "/home/sa/Desktop/TopBlock/topblock/contracts/Blocks.sol",
  "compiler": {
    "name": "solc",
    "version": "0.8.15+commit.e14f2714.Emscripten.clang"
  },
  "schemaVersion": "3.4.7",
  "updatedAt": "2022-07-23T01:54:09.345Z",
  "networkType": "ethereum",
  "devdoc": {
    "kind": "dev",
    "methods": {
      "balanceOf(address,uint256)": {
        "details": "See {IERC1155-balanceOf}. Requirements: - `account` cannot be the zero address."
      },
      "balanceOfBatch(address[],uint256[])": {
        "details": "See {IERC1155-balanceOfBatch}. Requirements: - `accounts` and `ids` must have the same length."
      },
      "isApprovedForAll(address,address)": {
        "details": "See {IERC1155-isApprovedForAll}."
      },
      "safeBatchTransferFrom(address,address,uint256[],uint256[],bytes)": {
        "details": "See {IERC1155-safeBatchTransferFrom}."
      },
      "safeTransferFrom(address,address,uint256,uint256,bytes)": {
        "details": "See {IERC1155-safeTransferFrom}."
      },
      "setApprovalForAll(address,bool)": {
        "details": "See {IERC1155-setApprovalForAll}."
      },
      "supportsInterface(bytes4)": {
        "details": "See {IERC165-supportsInterface}."
      },
      "uri(uint256)": {
        "details": "See {IERC1155MetadataURI-uri}. This implementation returns the same URI for *all* token types. It relies on the token type ID substitution mechanism https://eips.ethereum.org/EIPS/eip-1155#metadata[defined in the EIP]. Clients calling this function must replace the `\\{id\\}` substring with the actual token type ID."
      }
    },
    "version": 1
  },
  "userdoc": {
    "kind": "user",
    "methods": {},
    "version": 1
  }
}