{
  "contractName": "Blocks",
  "abi": [
    {
      "inputs": [],
      "stateMutability": "nonpayable",
      "type": "constructor"
    },
    {
      "anonymous": false,
      "inputs": [
        {
          "indexed": true,
          "internalType": "address",
          "name": "account",
          "type": "address"
        },
        {
          "indexed": true,
          "internalType": "address",
          "name": "operator",
          "type": "address"
        },
        {
          "indexed": false,
          "internalType": "bool",
          "name": "approved",
          "type": "bool"
        }
      ],
      "name": "ApprovalForAll",
      "type": "event"
    },
    {
      "anonymous": false,
      "inputs": [
        {
          "indexed": true,
          "internalType": "address",
          "name": "operator",
          "type": "address"
        },
        {
          "indexed": true,
          "internalType": "address",
          "name": "from",
          "type": "address"
        },
        {
          "indexed": true,
          "internalType": "address",
          "name": "to",
          "type": "address"
        },
        {
          "indexed": false,
          "internalType": "uint256[]",
          "name": "ids",
          "type": "uint256[]"
        },
        {
          "indexed": false,
          "internalType": "uint256[]",
          "name": "values",
          "type": "uint256[]"
        }
      ],
      "name": "TransferBatch",
      "type": "event"
    },
    {
      "anonymous": false,
      "inputs": [
        {
          "indexed": true,
          "internalType": "address",
          "name": "operator",
          "type": "address"
        },
        {
          "indexed": true,
          "internalType": "address",
          "name": "from",
          "type": "address"
        },
        {
          "indexed": true,
          "internalType": "address",
          "name": "to",
          "type": "address"
        },
        {
          "indexed": false,
          "internalType": "uint256",
          "name": "id",
          "type": "uint256"
        },
        {
          "indexed": false,
          "internalType": "uint256",
          "name": "value",
          "type": "uint256"
        }
      ],
      "name": "TransferSingle",
      "type": "event"
    },
    {
      "anonymous": false,
      "inputs": [
        {
          "indexed": false,
          "internalType": "string",
          "name": "value",
          "type": "string"
        },
        {
          "indexed": true,
          "internalType": "uint256",
          "name": "id",
          "type": "uint256"
        }
      ],
      "name": "URI",
      "type": "event"
    },
    {
      "inputs": [],
      "name": "GOLD",
      "outputs": [
        {
          "internalType": "uint256",
          "name": "",
          "type": "uint256"
        }
      ],
      "stateMutability": "view",
      "type": "function",
      "constant": true
    },
    {
      "inputs": [],
      "name": "SHIELD",
      "outputs": [
        {
          "internalType": "uint256",
          "name": "",
          "type": "uint256"
        }
      ],
      "stateMutability": "view",
      "type": "function",
      "constant": true
    },
    {
      "inputs": [],
      "name": "SILVER",
      "outputs": [
        {
          "internalType": "uint256",
          "name": "",
          "type": "uint256"
        }
      ],
      "stateMutability": "view",
      "type": "function",
      "constant": true
    },
    {
      "inputs": [],
      "name": "SWORD",
      "outputs": [
        {
          "internalType": "uint256",
          "name": "",
          "type": "uint256"
        }
      ],
      "stateMutability": "view",
      "type": "function",
      "constant": true
    },
    {
      "inputs": [],
      "name": "THORS_HAMMER",
      "outputs": [
        {
          "internalType": "uint256",
          "name": "",
          "type": "uint256"
        }
      ],
      "stateMutability": "view",
      "type": "function",
      "constant": true
    },
    {
      "inputs": [
        {
          "internalType": "address",
          "name": "account",
          "type": "address"
        },
        {
          "internalType": "uint256",
          "name": "id",
          "type": "uint256"
        }
      ],
      "name": "balanceOf",
      "outputs": [
        {
          "internalType": "uint256",
          "name": "",
          "type": "uint256"
        }
      ],
      "stateMutability": "view",
      "type": "function",
      "constant": true
    },
    {
      "inputs": [
        {
          "internalType": "address[]",
          "name": "accounts",
          "type": "address[]"
        },
        {
          "internalType": "uint256[]",
          "name": "ids",
          "type": "uint256[]"
        }
      ],
      "name": "balanceOfBatch",
      "outputs": [
        {
          "internalType": "uint256[]",
          "name": "",
          "type": "uint256[]"
        }
      ],
      "stateMutability": "view",
      "type": "function",
      "constant": true
    },
    {
      "inputs": [
        {
          "internalType": "uint256",
          "name": "",
          "type": "uint256"
        }
      ],
      "name": "blockers",
      "outputs": [
        {
          "internalType": "address",
          "name": "",
          "type": "address"
        }
      ],
      "stateMutability": "view",
      "type": "function",
      "constant": true
    },
    {
      "inputs": [
        {
          "internalType": "address",
          "name": "account",
          "type": "address"
        },
        {
          "internalType": "address",
          "name": "operator",
          "type": "address"
        }
      ],
      "name": "isApprovedForAll",
      "outputs": [
        {
          "internalType": "bool",
          "name": "",
          "type": "bool"
        }
      ],
      "stateMutability": "view",
      "type": "function",
      "constant": true
    },
    {
      "inputs": [
        {
          "internalType": "address",
          "name": "from",
          "type": "address"
        },
        {
          "internalType": "address",
          "name": "to",
          "type": "address"
        },
        {
          "internalType": "uint256[]",
          "name": "ids",
          "type": "uint256[]"
        },
        {
          "internalType": "uint256[]",
          "name": "amounts",
          "type": "uint256[]"
        },
        {
          "internalType": "bytes",
          "name": "data",
          "type": "bytes"
        }
      ],
      "name": "safeBatchTransferFrom",
      "outputs": [],
      "stateMutability": "nonpayable",
      "type": "function"
    },
    {
      "inputs": [
        {
          "internalType": "address",
          "name": "from",
          "type": "address"
        },
        {
          "internalType": "address",
          "name": "to",
          "type": "address"
        },
        {
          "internalType": "uint256",
          "name": "id",
          "type": "uint256"
        },
        {
          "internalType": "uint256",
          "name": "amount",
          "type": "uint256"
        },
        {
          "internalType": "bytes",
          "name": "data",
          "type": "bytes"
        }
      ],
      "name": "safeTransferFrom",
      "outputs": [],
      "stateMutability": "nonpayable",
      "type": "function"
    },
    {
      "inputs": [
        {
          "internalType": "address",
          "name": "operator",
          "type": "address"
        },
        {
          "internalType": "bool",
          "name": "approved",
          "type": "bool"
        }
      ],
      "name": "setApprovalForAll",
      "outputs": [],
      "stateMutability": "nonpayable",
      "type": "function"
    },
    {
      "inputs": [
        {
          "internalType": "bytes4",
          "name": "interfaceId",
          "type": "bytes4"
        }
      ],
      "name": "supportsInterface",
      "outputs": [
        {
          "internalType": "bool",
          "name": "",
          "type": "bool"
        }
      ],
      "stateMutability": "view",
      "type": "function",
      "constant": true
    },
    {
      "inputs": [
        {
          "internalType": "uint256",
          "name": "",
          "type": "uint256"
        }
      ],
      "name": "uri",
      "outputs": [
        {
          "internalType": "string",
          "name": "",
          "type": "string"
        }
      ],
      "stateMutability": "view",
      "type": "function",
      "constant": true
    },
    {
      "inputs": [
        {
          "internalType": "uint256",
          "name": "blockId",
          "type": "uint256"
        }
      ],
      "name": "mintABlock",
      "outputs": [
        {
          "internalType": "uint256",
          "name": "",
          "type": "uint256"
        }
      ],
      "stateMutability": "nonpayable",
      "type": "function"
    },
    {
      "inputs": [],
      "name": "getBlockers",
      "outputs": [
        {
          "internalType": "address[16]",
          "name": "",
          "type": "address[16]"
        }
      ],
      "stateMutability": "view",
      "type": "function",
      "constant": true
    }
  ],
  "bytecode": "0x60806040523480156200001157600080fd5b5060405180606001604052806027815260200162002fb5602791396200003d816200004460201b60201c565b50620003ba565b8060029081620000559190620002d3565b5050565b600081519050919050565b7f4e487b7100000000000000000000000000000000000000000000000000000000600052604160045260246000fd5b7f4e487b7100000000000000000000000000000000000000000000000000000000600052602260045260246000fd5b60006002820490506001821680620000db57607f821691505b602082108103620000f157620000f062000093565b5b50919050565b60008190508160005260206000209050919050565b60006020601f8301049050919050565b600082821b905092915050565b6000600883026200015b7fffffffffffffffffffffffffffffffffffffffffffffffffffffffffffffffff826200011c565b6200016786836200011c565b95508019841693508086168417925050509392505050565b6000819050919050565b6000819050919050565b6000620001b4620001ae620001a8846200017f565b62000189565b6200017f565b9050919050565b6000819050919050565b620001d08362000193565b620001e8620001df82620001bb565b84845462000129565b825550505050565b600090565b620001ff620001f0565b6200020c818484620001c5565b505050565b5b81811015620002345762000228600082620001f5565b60018101905062000212565b5050565b601f82111562000283576200024d81620000f7565b62000258846200010c565b8101602085101562000268578190505b6200028062000277856200010c565b83018262000211565b50505b505050565b600082821c905092915050565b6000620002a86000198460080262000288565b1980831691505092915050565b6000620002c3838362000295565b9150826002028217905092915050565b620002de8262000059565b67ffffffffffffffff811115620002fa57620002f962000064565b5b620003068254620000c2565b6200031382828562000238565b600060209050601f8311600181146200034b576000841562000336578287015190505b620003428582620002b5565b865550620003b2565b601f1984166200035b86620000f7565b60005b8281101562000385578489015182556001820191506020850194506020810190506200035e565b86831015620003a55784890151620003a1601f89168262000295565b8355505b6001600288020188555050505b505050505050565b612beb80620003ca6000396000f3fe608060405234801561001057600080fd5b50600436106100ff5760003560e01c80635b2725ed11610097578063e985e9c511610066578063e985e9c5146102c2578063eb9504fa146102f2578063f242432a14610310578063f576a4f01461032c576100ff565b80635b2725ed1461024c578063a22cb4651461026a578063d562e20414610286578063e3e55f08146102a4576100ff565b80632eb2c2d6116100d35780632eb2c2d6146101b25780633709492d146101ce5780633e4bee38146101fe5780634e1273f41461021c576100ff565b8062fdd58e1461010457806301ffc9a7146101345780630e89341c1461016457806313dc989f14610194575b600080fd5b61011e60048036038101906101199190611873565b61035c565b60405161012b91906118c2565b60405180910390f35b61014e60048036038101906101499190611935565b610424565b60405161015b919061197d565b60405180910390f35b61017e60048036038101906101799190611998565b610506565b60405161018b9190611a5e565b60405180910390f35b61019c61059a565b6040516101a991906118c2565b60405180910390f35b6101cc60048036038101906101c79190611c7d565b61059f565b005b6101e860048036038101906101e39190611998565b610640565b6040516101f591906118c2565b60405180910390f35b6102066106d4565b60405161021391906118c2565b60405180910390f35b61023660048036038101906102319190611e0f565b6106d9565b6040516102439190611f45565b60405180910390f35b6102546107f2565b60405161026191906118c2565b60405180910390f35b610284600480360381019061027f9190611f93565b6107f7565b005b61028e61080d565b60405161029b91906118c2565b60405180910390f35b6102ac610812565b6040516102b991906118c2565b60405180910390f35b6102dc60048036038101906102d79190611fd3565b610817565b6040516102e9919061197d565b60405180910390f35b6102fa6108ab565b60405161030791906120be565b60405180910390f35b61032a600480360381019061032591906120da565b61092c565b005b61034660048036038101906103419190611998565b6109cd565b6040516103539190612180565b60405180910390f35b60008073ffffffffffffffffffffffffffffffffffffffff168373ffffffffffffffffffffffffffffffffffffffff16036103cc576040517f08c379a00000000000000000000000000000000000000000000000000000000081526004016103c39061220d565b60405180910390fd5b60008083815260200190815260200160002060008473ffffffffffffffffffffffffffffffffffffffff1673ffffffffffffffffffffffffffffffffffffffff16815260200190815260200160002054905092915050565b60007fd9b67a26000000000000000000000000000000000000000000000000000000007bffffffffffffffffffffffffffffffffffffffffffffffffffffffff1916827bffffffffffffffffffffffffffffffffffffffffffffffffffffffff191614806104ef57507f0e89341c000000000000000000000000000000000000000000000000000000007bffffffffffffffffffffffffffffffffffffffffffffffffffffffff1916827bffffffffffffffffffffffffffffffffffffffffffffffffffffffff1916145b806104ff57506104fe82610a03565b5b9050919050565b6060600280546105159061225c565b80601f01602080910402602001604051908101604052809291908181526020018280546105419061225c565b801561058e5780601f106105635761010080835404028352916020019161058e565b820191906000526020600020905b81548152906001019060200180831161057157829003601f168201915b50505050509050919050565b600381565b6105a7610a6d565b73ffffffffffffffffffffffffffffffffffffffff168573ffffffffffffffffffffffffffffffffffffffff1614806105ed57506105ec856105e7610a6d565b610817565b5b61062c576040517f08c379a0000000000000000000000000000000000000000000000000000000008152600401610623906122ff565b60405180910390fd5b6106398585858585610a75565b5050505050565b60008082101580156106535750600f8211155b61065c57600080fd5b33600383601081106106715761067061231f565b5b0160006101000a81548173ffffffffffffffffffffffffffffffffffffffff021916908373ffffffffffffffffffffffffffffffffffffffff1602179055506106cc3383600a60405180602001604052806000815250610d96565b819050919050565b600081565b6060815183511461071f576040517f08c379a0000000000000000000000000000000000000000000000000000000008152600401610716906123c0565b60405180910390fd5b6000835167ffffffffffffffff81111561073c5761073b611a85565b5b60405190808252806020026020018201604052801561076a5781602001602082028036833780820191505090505b50905060005b84518110156107e7576107b785828151811061078f5761078e61231f565b5b60200260200101518583815181106107aa576107a961231f565b5b602002602001015161035c565b8282815181106107ca576107c961231f565b5b602002602001018181525050806107e09061240f565b9050610770565b508091505092915050565b600481565b610809610802610a6d565b8383610f46565b5050565b600281565b600181565b6000600160008473ffffffffffffffffffffffffffffffffffffffff1673ffffffffffffffffffffffffffffffffffffffff16815260200190815260200160002060008373ffffffffffffffffffffffffffffffffffffffff1673ffffffffffffffffffffffffffffffffffffffff16815260200190815260200160002060009054906101000a900460ff16905092915050565b6108b36117a8565b6003601080602002604051908101604052809291908260108015610922576020028201915b8160009054906101000a900473ffffffffffffffffffffffffffffffffffffffff1673ffffffffffffffffffffffffffffffffffffffff16815260200190600101908083116108d8575b5050505050905090565b610934610a6d565b73ffffffffffffffffffffffffffffffffffffffff168573ffffffffffffffffffffffffffffffffffffffff16148061097a575061097985610974610a6d565b610817565b5b6109b9576040517f08c379a00000000000000000000000000000000000000000000000000000000081526004016109b0906124c9565b60405180910390fd5b6109c685858585856110b2565b5050505050565b600381601081106109dd57600080fd5b016000915054906101000a900473ffffffffffffffffffffffffffffffffffffffff1681565b60007f01ffc9a7000000000000000000000000000000000000000000000000000000007bffffffffffffffffffffffffffffffffffffffffffffffffffffffff1916827bffffffffffffffffffffffffffffffffffffffffffffffffffffffff1916149050919050565b600033905090565b8151835114610ab9576040517f08c379a0000000000000000000000000000000000000000000000000000000008152600401610ab09061255b565b60405180910390fd5b600073ffffffffffffffffffffffffffffffffffffffff168473ffffffffffffffffffffffffffffffffffffffff1603610b28576040517f08c379a0000000000000000000000000000000000000000000000000000000008152600401610b1f906125ed565b60405180910390fd5b6000610b32610a6d565b9050610b4281878787878761134d565b60005b8451811015610cf3576000858281518110610b6357610b6261231f565b5b602002602001015190506000858381518110610b8257610b8161231f565b5b60200260200101519050600080600084815260200190815260200160002060008b73ffffffffffffffffffffffffffffffffffffffff1673ffffffffffffffffffffffffffffffffffffffff16815260200190815260200160002054905081811015610c23576040517f08c379a0000000000000000000000000000000000000000000000000000000008152600401610c1a9061267f565b60405180910390fd5b81810360008085815260200190815260200160002060008c73ffffffffffffffffffffffffffffffffffffffff1673ffffffffffffffffffffffffffffffffffffffff168152602001908152602001600020819055508160008085815260200190815260200160002060008b73ffffffffffffffffffffffffffffffffffffffff1673ffffffffffffffffffffffffffffffffffffffff1681526020019081526020016000206000828254610cd8919061269f565b9250508190555050505080610cec9061240f565b9050610b45565b508473ffffffffffffffffffffffffffffffffffffffff168673ffffffffffffffffffffffffffffffffffffffff168273ffffffffffffffffffffffffffffffffffffffff167f4a39dc06d4c0dbc64b70af90fd698a233a518aa5d07e595d983b8c0526c8f7fb8787604051610d6a9291906126f5565b60405180910390a4610d80818787878787611355565b610d8e81878787878761135d565b505050505050565b600073ffffffffffffffffffffffffffffffffffffffff168473ffffffffffffffffffffffffffffffffffffffff1603610e05576040517f08c379a0000000000000000000000000000000000000000000000000000000008152600401610dfc9061279e565b60405180910390fd5b6000610e0f610a6d565b90506000610e1c85611534565b90506000610e2985611534565b9050610e3a8360008985858961134d565b8460008088815260200190815260200160002060008973ffffffffffffffffffffffffffffffffffffffff1673ffffffffffffffffffffffffffffffffffffffff1681526020019081526020016000206000828254610e99919061269f565b925050819055508673ffffffffffffffffffffffffffffffffffffffff16600073ffffffffffffffffffffffffffffffffffffffff168473ffffffffffffffffffffffffffffffffffffffff167fc3d58168c5ae7397731d063d5bbf3d657854427343f4c083240f7aacaa2d0f628989604051610f179291906127be565b60405180910390a4610f2e83600089858589611355565b610f3d836000898989896115ae565b50505050505050565b8173ffffffffffffffffffffffffffffffffffffffff168373ffffffffffffffffffffffffffffffffffffffff1603610fb4576040517f08c379a0000000000000000000000000000000000000000000000000000000008152600401610fab90612859565b60405180910390fd5b80600160008573ffffffffffffffffffffffffffffffffffffffff1673ffffffffffffffffffffffffffffffffffffffff16815260200190815260200160002060008473ffffffffffffffffffffffffffffffffffffffff1673ffffffffffffffffffffffffffffffffffffffff16815260200190815260200160002060006101000a81548160ff0219169083151502179055508173ffffffffffffffffffffffffffffffffffffffff168373ffffffffffffffffffffffffffffffffffffffff167f17307eab39ab6107e8899845ad3d59bd9653f200f220920489ca2b5937696c31836040516110a5919061197d565b60405180910390a3505050565b600073ffffffffffffffffffffffffffffffffffffffff168473ffffffffffffffffffffffffffffffffffffffff1603611121576040517f08c379a0000000000000000000000000000000000000000000000000000000008152600401611118906125ed565b60405180910390fd5b600061112b610a6d565b9050600061113885611534565b9050600061114585611534565b905061115583898985858961134d565b600080600088815260200190815260200160002060008a73ffffffffffffffffffffffffffffffffffffffff1673ffffffffffffffffffffffffffffffffffffffff168152602001908152602001600020549050858110156111ec576040517f08c379a00000000000000000000000000000000000000000000000000000000081526004016111e39061267f565b60405180910390fd5b85810360008089815260200190815260200160002060008b73ffffffffffffffffffffffffffffffffffffffff1673ffffffffffffffffffffffffffffffffffffffff168152602001908152602001600020819055508560008089815260200190815260200160002060008a73ffffffffffffffffffffffffffffffffffffffff1673ffffffffffffffffffffffffffffffffffffffff16815260200190815260200160002060008282546112a1919061269f565b925050819055508773ffffffffffffffffffffffffffffffffffffffff168973ffffffffffffffffffffffffffffffffffffffff168573ffffffffffffffffffffffffffffffffffffffff167fc3d58168c5ae7397731d063d5bbf3d657854427343f4c083240f7aacaa2d0f628a8a60405161131e9291906127be565b60405180910390a4611334848a8a86868a611355565b611342848a8a8a8a8a6115ae565b505050505050505050565b505050505050565b505050505050565b61137c8473ffffffffffffffffffffffffffffffffffffffff16611785565b1561152c578373ffffffffffffffffffffffffffffffffffffffff1663bc197c8187878686866040518663ffffffff1660e01b81526004016113c29594939291906128ce565b6020604051808303816000875af19250505080156113fe57506040513d601f19601f820116820180604052508101906113fb919061294b565b60015b6114a35761140a612985565b806308c379a003611466575061141e6129a7565b806114295750611468565b806040517f08c379a000000000000000000000000000000000000000000000000000000000815260040161145d9190611a5e565b60405180910390fd5b505b6040517f08c379a000000000000000000000000000000000000000000000000000000000815260040161149a90612aa9565b60405180910390fd5b63bc197c8160e01b7bffffffffffffffffffffffffffffffffffffffffffffffffffffffff1916817bffffffffffffffffffffffffffffffffffffffffffffffffffffffff19161461152a576040517f08c379a000000000000000000000000000000000000000000000000000000000815260040161152190612b3b565b60405180910390fd5b505b505050505050565b60606000600167ffffffffffffffff81111561155357611552611a85565b5b6040519080825280602002602001820160405280156115815781602001602082028036833780820191505090505b50905082816000815181106115995761159861231f565b5b60200260200101818152505080915050919050565b6115cd8473ffffffffffffffffffffffffffffffffffffffff16611785565b1561177d578373ffffffffffffffffffffffffffffffffffffffff1663f23a6e6187878686866040518663ffffffff1660e01b8152600401611613959493929190612b5b565b6020604051808303816000875af192505050801561164f57506040513d601f19601f8201168201806040525081019061164c919061294b565b60015b6116f45761165b612985565b806308c379a0036116b7575061166f6129a7565b8061167a57506116b9565b806040517f08c379a00000000000000000000000000000000000000000000000000000000081526004016116ae9190611a5e565b60405180910390fd5b505b6040517f08c379a00000000000000000000000000000000000000000000000000000000081526004016116eb90612aa9565b60405180910390fd5b63f23a6e6160e01b7bffffffffffffffffffffffffffffffffffffffffffffffffffffffff1916817bffffffffffffffffffffffffffffffffffffffffffffffffffffffff19161461177b576040517f08c379a000000000000000000000000000000000000000000000000000000000815260040161177290612b3b565b60405180910390fd5b505b505050505050565b6000808273ffffffffffffffffffffffffffffffffffffffff163b119050919050565b604051806102000160405280601090602082028036833780820191505090505090565b6000604051905090565b600080fd5b600080fd5b600073ffffffffffffffffffffffffffffffffffffffff82169050919050565b600061180a826117df565b9050919050565b61181a816117ff565b811461182557600080fd5b50565b60008135905061183781611811565b92915050565b6000819050919050565b6118508161183d565b811461185b57600080fd5b50565b60008135905061186d81611847565b92915050565b6000806040838503121561188a576118896117d5565b5b600061189885828601611828565b92505060206118a98582860161185e565b9150509250929050565b6118bc8161183d565b82525050565b60006020820190506118d760008301846118b3565b92915050565b60007fffffffff0000000000000000000000000000000000000000000000000000000082169050919050565b611912816118dd565b811461191d57600080fd5b50565b60008135905061192f81611909565b92915050565b60006020828403121561194b5761194a6117d5565b5b600061195984828501611920565b91505092915050565b60008115159050919050565b61197781611962565b82525050565b6000602082019050611992600083018461196e565b92915050565b6000602082840312156119ae576119ad6117d5565b5b60006119bc8482850161185e565b91505092915050565b600081519050919050565b600082825260208201905092915050565b60005b838110156119ff5780820151818401526020810190506119e4565b83811115611a0e576000848401525b50505050565b6000601f19601f8301169050919050565b6000611a30826119c5565b611a3a81856119d0565b9350611a4a8185602086016119e1565b611a5381611a14565b840191505092915050565b60006020820190508181036000830152611a788184611a25565b905092915050565b600080fd5b7f4e487b7100000000000000000000000000000000000000000000000000000000600052604160045260246000fd5b611abd82611a14565b810181811067ffffffffffffffff82111715611adc57611adb611a85565b5b80604052505050565b6000611aef6117cb565b9050611afb8282611ab4565b919050565b600067ffffffffffffffff821115611b1b57611b1a611a85565b5b602082029050602081019050919050565b600080fd5b6000611b44611b3f84611b00565b611ae5565b90508083825260208201905060208402830185811115611b6757611b66611b2c565b5b835b81811015611b905780611b7c888261185e565b845260208401935050602081019050611b69565b5050509392505050565b600082601f830112611baf57611bae611a80565b5b8135611bbf848260208601611b31565b91505092915050565b600080fd5b600067ffffffffffffffff821115611be857611be7611a85565b5b611bf182611a14565b9050602081019050919050565b82818337600083830152505050565b6000611c20611c1b84611bcd565b611ae5565b905082815260208101848484011115611c3c57611c3b611bc8565b5b611c47848285611bfe565b509392505050565b600082601f830112611c6457611c63611a80565b5b8135611c74848260208601611c0d565b91505092915050565b600080600080600060a08688031215611c9957611c986117d5565b5b6000611ca788828901611828565b9550506020611cb888828901611828565b945050604086013567ffffffffffffffff811115611cd957611cd86117da565b5b611ce588828901611b9a565b935050606086013567ffffffffffffffff811115611d0657611d056117da565b5b611d1288828901611b9a565b925050608086013567ffffffffffffffff811115611d3357611d326117da565b5b611d3f88828901611c4f565b9150509295509295909350565b600067ffffffffffffffff821115611d6757611d66611a85565b5b602082029050602081019050919050565b6000611d8b611d8684611d4c565b611ae5565b90508083825260208201905060208402830185811115611dae57611dad611b2c565b5b835b81811015611dd75780611dc38882611828565b845260208401935050602081019050611db0565b5050509392505050565b600082601f830112611df657611df5611a80565b5b8135611e06848260208601611d78565b91505092915050565b60008060408385031215611e2657611e256117d5565b5b600083013567ffffffffffffffff811115611e4457611e436117da565b5b611e5085828601611de1565b925050602083013567ffffffffffffffff811115611e7157611e706117da565b5b611e7d85828601611b9a565b9150509250929050565b600081519050919050565b600082825260208201905092915050565b6000819050602082019050919050565b611ebc8161183d565b82525050565b6000611ece8383611eb3565b60208301905092915050565b6000602082019050919050565b6000611ef282611e87565b611efc8185611e92565b9350611f0783611ea3565b8060005b83811015611f38578151611f1f8882611ec2565b9750611f2a83611eda565b925050600181019050611f0b565b5085935050505092915050565b60006020820190508181036000830152611f5f8184611ee7565b905092915050565b611f7081611962565b8114611f7b57600080fd5b50565b600081359050611f8d81611f67565b92915050565b60008060408385031215611faa57611fa96117d5565b5b6000611fb885828601611828565b9250506020611fc985828601611f7e565b9150509250929050565b60008060408385031215611fea57611fe96117d5565b5b6000611ff885828601611828565b925050602061200985828601611828565b9150509250929050565b600060109050919050565b600081905092915050565b6000819050919050565b61203c816117ff565b82525050565b600061204e8383612033565b60208301905092915050565b6000602082019050919050565b61207081612013565b61207a818461201e565b925061208582612029565b8060005b838110156120b657815161209d8782612042565b96506120a88361205a565b925050600181019050612089565b505050505050565b6000610200820190506120d46000830184612067565b92915050565b600080600080600060a086880312156120f6576120f56117d5565b5b600061210488828901611828565b955050602061211588828901611828565b94505060406121268882890161185e565b93505060606121378882890161185e565b925050608086013567ffffffffffffffff811115612158576121576117da565b5b61216488828901611c4f565b9150509295509295909350565b61217a816117ff565b82525050565b60006020820190506121956000830184612171565b92915050565b7f455243313135353a2062616c616e636520717565727920666f7220746865207a60008201527f65726f2061646472657373000000000000000000000000000000000000000000602082015250565b60006121f7602b836119d0565b91506122028261219b565b604082019050919050565b60006020820190508181036000830152612226816121ea565b9050919050565b7f4e487b7100000000000000000000000000000000000000000000000000000000600052602260045260246000fd5b6000600282049050600182168061227457607f821691505b6020821081036122875761228661222d565b5b50919050565b7f455243313135353a207472616e736665722063616c6c6572206973206e6f742060008201527f6f776e6572206e6f7220617070726f7665640000000000000000000000000000602082015250565b60006122e96032836119d0565b91506122f48261228d565b604082019050919050565b60006020820190508181036000830152612318816122dc565b9050919050565b7f4e487b7100000000000000000000000000000000000000000000000000000000600052603260045260246000fd5b7f455243313135353a206163636f756e747320616e6420696473206c656e67746860008201527f206d69736d617463680000000000000000000000000000000000000000000000602082015250565b60006123aa6029836119d0565b91506123b58261234e565b604082019050919050565b600060208201905081810360008301526123d98161239d565b9050919050565b7f4e487b7100000000000000000000000000000000000000000000000000000000600052601160045260246000fd5b600061241a8261183d565b91507fffffffffffffffffffffffffffffffffffffffffffffffffffffffffffffffff820361244c5761244b6123e0565b5b600182019050919050565b7f455243313135353a2063616c6c6572206973206e6f74206f776e6572206e6f7260008201527f20617070726f7665640000000000000000000000000000000000000000000000602082015250565b60006124b36029836119d0565b91506124be82612457565b604082019050919050565b600060208201905081810360008301526124e2816124a6565b9050919050565b7f455243313135353a2069647320616e6420616d6f756e7473206c656e6774682060008201527f6d69736d61746368000000000000000000000000000000000000000000000000602082015250565b60006125456028836119d0565b9150612550826124e9565b604082019050919050565b6000602082019050818103600083015261257481612538565b9050919050565b7f455243313135353a207472616e7366657220746f20746865207a65726f20616460008201527f6472657373000000000000000000000000000000000000000000000000000000602082015250565b60006125d76025836119d0565b91506125e28261257b565b604082019050919050565b60006020820190508181036000830152612606816125ca565b9050919050565b7f455243313135353a20696e73756666696369656e742062616c616e636520666f60008201527f72207472616e7366657200000000000000000000000000000000000000000000602082015250565b6000612669602a836119d0565b91506126748261260d565b604082019050919050565b600060208201905081810360008301526126988161265c565b9050919050565b60006126aa8261183d565b91506126b58361183d565b9250827fffffffffffffffffffffffffffffffffffffffffffffffffffffffffffffffff038211156126ea576126e96123e0565b5b828201905092915050565b6000604082019050818103600083015261270f8185611ee7565b905081810360208301526127238184611ee7565b90509392505050565b7f455243313135353a206d696e7420746f20746865207a65726f2061646472657360008201527f7300000000000000000000000000000000000000000000000000000000000000602082015250565b60006127886021836119d0565b91506127938261272c565b604082019050919050565b600060208201905081810360008301526127b78161277b565b9050919050565b60006040820190506127d360008301856118b3565b6127e060208301846118b3565b9392505050565b7f455243313135353a2073657474696e6720617070726f76616c2073746174757360008201527f20666f722073656c660000000000000000000000000000000000000000000000602082015250565b60006128436029836119d0565b915061284e826127e7565b604082019050919050565b6000602082019050818103600083015261287281612836565b9050919050565b600081519050919050565b600082825260208201905092915050565b60006128a082612879565b6128aa8185612884565b93506128ba8185602086016119e1565b6128c381611a14565b840191505092915050565b600060a0820190506128e36000830188612171565b6128f06020830187612171565b81810360408301526129028186611ee7565b905081810360608301526129168185611ee7565b9050818103608083015261292a8184612895565b90509695505050505050565b60008151905061294581611909565b92915050565b600060208284031215612961576129606117d5565b5b600061296f84828501612936565b91505092915050565b60008160e01c9050919050565b600060033d11156129a45760046000803e6129a1600051612978565b90505b90565b600060443d10612a34576129b96117cb565b60043d036004823e80513d602482011167ffffffffffffffff821117156129e1575050612a34565b808201805167ffffffffffffffff8111156129ff5750505050612a34565b80602083010160043d038501811115612a1c575050505050612a34565b612a2b82602001850186611ab4565b82955050505050505b90565b7f455243313135353a207472616e7366657220746f206e6f6e204552433131353560008201527f526563656976657220696d706c656d656e746572000000000000000000000000602082015250565b6000612a936034836119d0565b9150612a9e82612a37565b604082019050919050565b60006020820190508181036000830152612ac281612a86565b9050919050565b7f455243313135353a204552433131353552656365697665722072656a6563746560008201527f6420746f6b656e73000000000000000000000000000000000000000000000000602082015250565b6000612b256028836119d0565b9150612b3082612ac9565b604082019050919050565b60006020820190508181036000830152612b5481612b18565b9050919050565b600060a082019050612b706000830188612171565b612b7d6020830187612171565b612b8a60408301866118b3565b612b9760608301856118b3565b8181036080830152612ba98184612895565b9050969550505050505056fea264697066735822122055249112cdc152eba2a49f63888f7b685cb0723a2b7651f9a9a05f44e302f7c864736f6c634300080f003368747470733a2f2f67616d652e6578616d706c652f6170692f6974656d2f7b69647d2e6a736f6e",
  "immutableReferences": {},
  "source": "// contracts/Blocks.sol\n// SPDX-License-Identifier: MIT\npragma solidity ^0.8.0;\n\nimport \"openzeppelin-solidity/contracts/token/ERC1155/ERC1155.sol\";\n\ncontract Blocks is ERC1155 {\n    uint256 public constant GOLD = 0;\n    uint256 public constant SILVER = 1;\n    uint256 public constant THORS_HAMMER = 2;\n    uint256 public constant SWORD = 3;\n    uint256 public constant SHIELD = 4;\n\n    constructor() ERC1155(\"https://game.example/api/item/{id}.json\") {\n        // _mint(msg.sender, GOLD, 10**18, \"\");\n        // _mint(msg.sender, SILVER, 10**27, \"\");\n        // _mint(msg.sender, THORS_HAMMER, 1, \"\");\n        // _mint(msg.sender, SWORD, 10**9, \"\");\n        // _mint(msg.sender, SHIELD, 10**9, \"\");\n    }\n\n    address[16] public blockers;\n\n    // Adopting a pet\n    function mintABlock(uint blockId) public returns (uint) {\n        require(blockId >= 0 && blockId <= 15);\n\n        blockers[blockId] = msg.sender;\n\n        _mint(msg.sender, blockId, 10, \"\");\n\n        return blockId;\n    }\n\n    // Retrieving the adopters\n    function getBlockers() public view returns (address[16] memory) {\n        return blockers;\n    }\n}",
  "sourcePath": "/home/sa/Desktop/TopBlock/topblock/contracts/Blocks.sol",
  "compiler": {
    "name": "solc",
    "version": "0.8.15+commit.e14f2714.Emscripten.clang"
  },
  "schemaVersion": "3.4.7",
  "updatedAt": "2022-07-20T02:48:14.952Z",
  "networkType": "ethereum",
  "devdoc": {
    "kind": "dev",
    "methods": {
      "balanceOf(address,uint256)": {
        "details": "See {IERC1155-balanceOf}. Requirements: - `account` cannot be the zero address."
      },
      "balanceOfBatch(address[],uint256[])": {
        "details": "See {IERC1155-balanceOfBatch}. Requirements: - `accounts` and `ids` must have the same length."
      },
      "isApprovedForAll(address,address)": {
        "details": "See {IERC1155-isApprovedForAll}."
      },
      "safeBatchTransferFrom(address,address,uint256[],uint256[],bytes)": {
        "details": "See {IERC1155-safeBatchTransferFrom}."
      },
      "safeTransferFrom(address,address,uint256,uint256,bytes)": {
        "details": "See {IERC1155-safeTransferFrom}."
      },
      "setApprovalForAll(address,bool)": {
        "details": "See {IERC1155-setApprovalForAll}."
      },
      "supportsInterface(bytes4)": {
        "details": "See {IERC165-supportsInterface}."
      },
      "uri(uint256)": {
        "details": "See {IERC1155MetadataURI-uri}. This implementation returns the same URI for *all* token types. It relies on the token type ID substitution mechanism https://eips.ethereum.org/EIPS/eip-1155#metadata[defined in the EIP]. Clients calling this function must replace the `\\{id\\}` substring with the actual token type ID."
      }
    },
    "version": 1
  },
  "userdoc": {
    "kind": "user",
    "methods": {},
    "version": 1
  }
}