{
  "contractName": "Blocks",
  "abi": [
    {
      "inputs": [],
      "stateMutability": "nonpayable",
      "type": "constructor"
    },
    {
      "anonymous": false,
      "inputs": [
        {
          "indexed": true,
          "internalType": "address",
          "name": "account",
          "type": "address"
        },
        {
          "indexed": true,
          "internalType": "address",
          "name": "operator",
          "type": "address"
        },
        {
          "indexed": false,
          "internalType": "bool",
          "name": "approved",
          "type": "bool"
        }
      ],
      "name": "ApprovalForAll",
      "type": "event"
    },
    {
      "anonymous": false,
      "inputs": [
        {
          "indexed": true,
          "internalType": "address",
          "name": "operator",
          "type": "address"
        },
        {
          "indexed": true,
          "internalType": "address",
          "name": "from",
          "type": "address"
        },
        {
          "indexed": true,
          "internalType": "address",
          "name": "to",
          "type": "address"
        },
        {
          "indexed": false,
          "internalType": "uint256[]",
          "name": "ids",
          "type": "uint256[]"
        },
        {
          "indexed": false,
          "internalType": "uint256[]",
          "name": "values",
          "type": "uint256[]"
        }
      ],
      "name": "TransferBatch",
      "type": "event"
    },
    {
      "anonymous": false,
      "inputs": [
        {
          "indexed": true,
          "internalType": "address",
          "name": "operator",
          "type": "address"
        },
        {
          "indexed": true,
          "internalType": "address",
          "name": "from",
          "type": "address"
        },
        {
          "indexed": true,
          "internalType": "address",
          "name": "to",
          "type": "address"
        },
        {
          "indexed": false,
          "internalType": "uint256",
          "name": "id",
          "type": "uint256"
        },
        {
          "indexed": false,
          "internalType": "uint256",
          "name": "value",
          "type": "uint256"
        }
      ],
      "name": "TransferSingle",
      "type": "event"
    },
    {
      "anonymous": false,
      "inputs": [
        {
          "indexed": false,
          "internalType": "string",
          "name": "value",
          "type": "string"
        },
        {
          "indexed": true,
          "internalType": "uint256",
          "name": "id",
          "type": "uint256"
        }
      ],
      "name": "URI",
      "type": "event"
    },
    {
      "inputs": [],
      "name": "GOLD",
      "outputs": [
        {
          "internalType": "uint256",
          "name": "",
          "type": "uint256"
        }
      ],
      "stateMutability": "view",
      "type": "function",
      "constant": true
    },
    {
      "inputs": [],
      "name": "SHIELD",
      "outputs": [
        {
          "internalType": "uint256",
          "name": "",
          "type": "uint256"
        }
      ],
      "stateMutability": "view",
      "type": "function",
      "constant": true
    },
    {
      "inputs": [],
      "name": "SILVER",
      "outputs": [
        {
          "internalType": "uint256",
          "name": "",
          "type": "uint256"
        }
      ],
      "stateMutability": "view",
      "type": "function",
      "constant": true
    },
    {
      "inputs": [],
      "name": "SWORD",
      "outputs": [
        {
          "internalType": "uint256",
          "name": "",
          "type": "uint256"
        }
      ],
      "stateMutability": "view",
      "type": "function",
      "constant": true
    },
    {
      "inputs": [],
      "name": "THORS_HAMMER",
      "outputs": [
        {
          "internalType": "uint256",
          "name": "",
          "type": "uint256"
        }
      ],
      "stateMutability": "view",
      "type": "function",
      "constant": true
    },
    {
      "inputs": [
        {
          "internalType": "address",
          "name": "account",
          "type": "address"
        },
        {
          "internalType": "uint256",
          "name": "id",
          "type": "uint256"
        }
      ],
      "name": "balanceOf",
      "outputs": [
        {
          "internalType": "uint256",
          "name": "",
          "type": "uint256"
        }
      ],
      "stateMutability": "view",
      "type": "function",
      "constant": true
    },
    {
      "inputs": [
        {
          "internalType": "address[]",
          "name": "accounts",
          "type": "address[]"
        },
        {
          "internalType": "uint256[]",
          "name": "ids",
          "type": "uint256[]"
        }
      ],
      "name": "balanceOfBatch",
      "outputs": [
        {
          "internalType": "uint256[]",
          "name": "",
          "type": "uint256[]"
        }
      ],
      "stateMutability": "view",
      "type": "function",
      "constant": true
    },
    {
      "inputs": [
        {
          "internalType": "uint256",
          "name": "",
          "type": "uint256"
        }
      ],
      "name": "blockers",
      "outputs": [
        {
          "internalType": "address",
          "name": "",
          "type": "address"
        }
      ],
      "stateMutability": "view",
      "type": "function",
      "constant": true
    },
    {
      "inputs": [
        {
          "internalType": "address",
          "name": "account",
          "type": "address"
        },
        {
          "internalType": "address",
          "name": "operator",
          "type": "address"
        }
      ],
      "name": "isApprovedForAll",
      "outputs": [
        {
          "internalType": "bool",
          "name": "",
          "type": "bool"
        }
      ],
      "stateMutability": "view",
      "type": "function",
      "constant": true
    },
    {
      "inputs": [
        {
          "internalType": "address",
          "name": "from",
          "type": "address"
        },
        {
          "internalType": "address",
          "name": "to",
          "type": "address"
        },
        {
          "internalType": "uint256[]",
          "name": "ids",
          "type": "uint256[]"
        },
        {
          "internalType": "uint256[]",
          "name": "amounts",
          "type": "uint256[]"
        },
        {
          "internalType": "bytes",
          "name": "data",
          "type": "bytes"
        }
      ],
      "name": "safeBatchTransferFrom",
      "outputs": [],
      "stateMutability": "nonpayable",
      "type": "function"
    },
    {
      "inputs": [
        {
          "internalType": "address",
          "name": "from",
          "type": "address"
        },
        {
          "internalType": "address",
          "name": "to",
          "type": "address"
        },
        {
          "internalType": "uint256",
          "name": "id",
          "type": "uint256"
        },
        {
          "internalType": "uint256",
          "name": "amount",
          "type": "uint256"
        },
        {
          "internalType": "bytes",
          "name": "data",
          "type": "bytes"
        }
      ],
      "name": "safeTransferFrom",
      "outputs": [],
      "stateMutability": "nonpayable",
      "type": "function"
    },
    {
      "inputs": [
        {
          "internalType": "address",
          "name": "operator",
          "type": "address"
        },
        {
          "internalType": "bool",
          "name": "approved",
          "type": "bool"
        }
      ],
      "name": "setApprovalForAll",
      "outputs": [],
      "stateMutability": "nonpayable",
      "type": "function"
    },
    {
      "inputs": [
        {
          "internalType": "bytes4",
          "name": "interfaceId",
          "type": "bytes4"
        }
      ],
      "name": "supportsInterface",
      "outputs": [
        {
          "internalType": "bool",
          "name": "",
          "type": "bool"
        }
      ],
      "stateMutability": "view",
      "type": "function",
      "constant": true
    },
    {
      "inputs": [
        {
          "internalType": "uint256",
          "name": "",
          "type": "uint256"
        }
      ],
      "name": "uri",
      "outputs": [
        {
          "internalType": "string",
          "name": "",
          "type": "string"
        }
      ],
      "stateMutability": "view",
      "type": "function",
      "constant": true
    },
    {
      "inputs": [
        {
          "internalType": "uint256",
          "name": "blockId",
          "type": "uint256"
        }
      ],
      "name": "mintABlock",
      "outputs": [
        {
          "internalType": "uint256",
          "name": "",
          "type": "uint256"
        }
      ],
      "stateMutability": "nonpayable",
      "type": "function"
    },
    {
      "inputs": [],
      "name": "getBlockers",
      "outputs": [
        {
          "internalType": "address[16]",
          "name": "",
          "type": "address[16]"
        }
      ],
      "stateMutability": "view",
      "type": "function",
      "constant": true
    }
  ],
  "bytecode": "0x60806040523480156200001157600080fd5b5060405180606001604052806027815260200162002d57602791396200003d816200004460201b60201c565b50620003ba565b8060029081620000559190620002d3565b5050565b600081519050919050565b7f4e487b7100000000000000000000000000000000000000000000000000000000600052604160045260246000fd5b7f4e487b7100000000000000000000000000000000000000000000000000000000600052602260045260246000fd5b60006002820490506001821680620000db57607f821691505b602082108103620000f157620000f062000093565b5b50919050565b60008190508160005260206000209050919050565b60006020601f8301049050919050565b600082821b905092915050565b6000600883026200015b7fffffffffffffffffffffffffffffffffffffffffffffffffffffffffffffffff826200011c565b6200016786836200011c565b95508019841693508086168417925050509392505050565b6000819050919050565b6000819050919050565b6000620001b4620001ae620001a8846200017f565b62000189565b6200017f565b9050919050565b6000819050919050565b620001d08362000193565b620001e8620001df82620001bb565b84845462000129565b825550505050565b600090565b620001ff620001f0565b6200020c818484620001c5565b505050565b5b81811015620002345762000228600082620001f5565b60018101905062000212565b5050565b601f82111562000283576200024d81620000f7565b62000258846200010c565b8101602085101562000268578190505b6200028062000277856200010c565b83018262000211565b50505b505050565b600082821c905092915050565b6000620002a86000198460080262000288565b1980831691505092915050565b6000620002c3838362000295565b9150826002028217905092915050565b620002de8262000059565b67ffffffffffffffff811115620002fa57620002f962000064565b5b620003068254620000c2565b6200031382828562000238565b600060209050601f8311600181146200034b576000841562000336578287015190505b620003428582620002b5565b865550620003b2565b601f1984166200035b86620000f7565b60005b8281101562000385578489015182556001820191506020850194506020810190506200035e565b86831015620003a55784890151620003a1601f89168262000295565b8355505b6001600288020188555050505b505050505050565b61298d80620003ca6000396000f3fe608060405234801561001057600080fd5b50600436106100ff5760003560e01c80635b2725ed11610097578063e985e9c511610066578063e985e9c5146102c2578063eb9504fa146102f2578063f242432a14610310578063f576a4f01461032c576100ff565b80635b2725ed1461024c578063a22cb4651461026a578063d562e20414610286578063e3e55f08146102a4576100ff565b80632eb2c2d6116100d35780632eb2c2d6146101b25780633709492d146101ce5780633e4bee38146101fe5780634e1273f41461021c576100ff565b8062fdd58e1461010457806301ffc9a7146101345780630e89341c1461016457806313dc989f14610194575b600080fd5b61011e600480360381019061011991906116a7565b61035c565b60405161012b91906116f6565b60405180910390f35b61014e60048036038101906101499190611769565b610424565b60405161015b91906117b1565b60405180910390f35b61017e600480360381019061017991906117cc565b610506565b60405161018b9190611892565b60405180910390f35b61019c61059a565b6040516101a991906116f6565b60405180910390f35b6101cc60048036038101906101c79190611ab1565b61059f565b005b6101e860048036038101906101e391906117cc565b610640565b6040516101f591906116f6565b60405180910390f35b6102066106b8565b60405161021391906116f6565b60405180910390f35b61023660048036038101906102319190611c43565b6106bd565b6040516102439190611d79565b60405180910390f35b6102546107d6565b60405161026191906116f6565b60405180910390f35b610284600480360381019061027f9190611dc7565b6107db565b005b61028e6107f1565b60405161029b91906116f6565b60405180910390f35b6102ac6107f6565b6040516102b991906116f6565b60405180910390f35b6102dc60048036038101906102d79190611e07565b6107fb565b6040516102e991906117b1565b60405180910390f35b6102fa61088f565b6040516103079190611ef2565b60405180910390f35b61032a60048036038101906103259190611f0e565b610910565b005b610346600480360381019061034191906117cc565b6109b1565b6040516103539190611fb4565b60405180910390f35b60008073ffffffffffffffffffffffffffffffffffffffff168373ffffffffffffffffffffffffffffffffffffffff16036103cc576040517f08c379a00000000000000000000000000000000000000000000000000000000081526004016103c390612041565b60405180910390fd5b60008083815260200190815260200160002060008473ffffffffffffffffffffffffffffffffffffffff1673ffffffffffffffffffffffffffffffffffffffff16815260200190815260200160002054905092915050565b60007fd9b67a26000000000000000000000000000000000000000000000000000000007bffffffffffffffffffffffffffffffffffffffffffffffffffffffff1916827bffffffffffffffffffffffffffffffffffffffffffffffffffffffff191614806104ef57507f0e89341c000000000000000000000000000000000000000000000000000000007bffffffffffffffffffffffffffffffffffffffffffffffffffffffff1916827bffffffffffffffffffffffffffffffffffffffffffffffffffffffff1916145b806104ff57506104fe826109e7565b5b9050919050565b60606002805461051590612090565b80601f016020809104026020016040519081016040528092919081815260200182805461054190612090565b801561058e5780601f106105635761010080835404028352916020019161058e565b820191906000526020600020905b81548152906001019060200180831161057157829003601f168201915b50505050509050919050565b600381565b6105a7610a51565b73ffffffffffffffffffffffffffffffffffffffff168573ffffffffffffffffffffffffffffffffffffffff1614806105ed57506105ec856105e7610a51565b6107fb565b5b61062c576040517f08c379a000000000000000000000000000000000000000000000000000000000815260040161062390612133565b60405180910390fd5b6106398585858585610a59565b5050505050565b60008082101580156106535750600f8211155b61065c57600080fd5b336003836010811061067157610670612153565b5b0160006101000a81548173ffffffffffffffffffffffffffffffffffffffff021916908373ffffffffffffffffffffffffffffffffffffffff160217905550819050919050565b600081565b60608151835114610703576040517f08c379a00000000000000000000000000000000000000000000000000000000081526004016106fa906121f4565b60405180910390fd5b6000835167ffffffffffffffff8111156107205761071f6118b9565b5b60405190808252806020026020018201604052801561074e5781602001602082028036833780820191505090505b50905060005b84518110156107cb5761079b85828151811061077357610772612153565b5b602002602001015185838151811061078e5761078d612153565b5b602002602001015161035c565b8282815181106107ae576107ad612153565b5b602002602001018181525050806107c490612243565b9050610754565b508091505092915050565b600481565b6107ed6107e6610a51565b8383610d7a565b5050565b600281565b600181565b6000600160008473ffffffffffffffffffffffffffffffffffffffff1673ffffffffffffffffffffffffffffffffffffffff16815260200190815260200160002060008373ffffffffffffffffffffffffffffffffffffffff1673ffffffffffffffffffffffffffffffffffffffff16815260200190815260200160002060009054906101000a900460ff16905092915050565b6108976115dc565b6003601080602002604051908101604052809291908260108015610906576020028201915b8160009054906101000a900473ffffffffffffffffffffffffffffffffffffffff1673ffffffffffffffffffffffffffffffffffffffff16815260200190600101908083116108bc575b5050505050905090565b610918610a51565b73ffffffffffffffffffffffffffffffffffffffff168573ffffffffffffffffffffffffffffffffffffffff16148061095e575061095d85610958610a51565b6107fb565b5b61099d576040517f08c379a0000000000000000000000000000000000000000000000000000000008152600401610994906122fd565b60405180910390fd5b6109aa8585858585610ee6565b5050505050565b600381601081106109c157600080fd5b016000915054906101000a900473ffffffffffffffffffffffffffffffffffffffff1681565b60007f01ffc9a7000000000000000000000000000000000000000000000000000000007bffffffffffffffffffffffffffffffffffffffffffffffffffffffff1916827bffffffffffffffffffffffffffffffffffffffffffffffffffffffff1916149050919050565b600033905090565b8151835114610a9d576040517f08c379a0000000000000000000000000000000000000000000000000000000008152600401610a949061238f565b60405180910390fd5b600073ffffffffffffffffffffffffffffffffffffffff168473ffffffffffffffffffffffffffffffffffffffff1603610b0c576040517f08c379a0000000000000000000000000000000000000000000000000000000008152600401610b0390612421565b60405180910390fd5b6000610b16610a51565b9050610b26818787878787611181565b60005b8451811015610cd7576000858281518110610b4757610b46612153565b5b602002602001015190506000858381518110610b6657610b65612153565b5b60200260200101519050600080600084815260200190815260200160002060008b73ffffffffffffffffffffffffffffffffffffffff1673ffffffffffffffffffffffffffffffffffffffff16815260200190815260200160002054905081811015610c07576040517f08c379a0000000000000000000000000000000000000000000000000000000008152600401610bfe906124b3565b60405180910390fd5b81810360008085815260200190815260200160002060008c73ffffffffffffffffffffffffffffffffffffffff1673ffffffffffffffffffffffffffffffffffffffff168152602001908152602001600020819055508160008085815260200190815260200160002060008b73ffffffffffffffffffffffffffffffffffffffff1673ffffffffffffffffffffffffffffffffffffffff1681526020019081526020016000206000828254610cbc91906124d3565b9250508190555050505080610cd090612243565b9050610b29565b508473ffffffffffffffffffffffffffffffffffffffff168673ffffffffffffffffffffffffffffffffffffffff168273ffffffffffffffffffffffffffffffffffffffff167f4a39dc06d4c0dbc64b70af90fd698a233a518aa5d07e595d983b8c0526c8f7fb8787604051610d4e929190612529565b60405180910390a4610d64818787878787611189565b610d72818787878787611191565b505050505050565b8173ffffffffffffffffffffffffffffffffffffffff168373ffffffffffffffffffffffffffffffffffffffff1603610de8576040517f08c379a0000000000000000000000000000000000000000000000000000000008152600401610ddf906125d2565b60405180910390fd5b80600160008573ffffffffffffffffffffffffffffffffffffffff1673ffffffffffffffffffffffffffffffffffffffff16815260200190815260200160002060008473ffffffffffffffffffffffffffffffffffffffff1673ffffffffffffffffffffffffffffffffffffffff16815260200190815260200160002060006101000a81548160ff0219169083151502179055508173ffffffffffffffffffffffffffffffffffffffff168373ffffffffffffffffffffffffffffffffffffffff167f17307eab39ab6107e8899845ad3d59bd9653f200f220920489ca2b5937696c3183604051610ed991906117b1565b60405180910390a3505050565b600073ffffffffffffffffffffffffffffffffffffffff168473ffffffffffffffffffffffffffffffffffffffff1603610f55576040517f08c379a0000000000000000000000000000000000000000000000000000000008152600401610f4c90612421565b60405180910390fd5b6000610f5f610a51565b90506000610f6c85611368565b90506000610f7985611368565b9050610f89838989858589611181565b600080600088815260200190815260200160002060008a73ffffffffffffffffffffffffffffffffffffffff1673ffffffffffffffffffffffffffffffffffffffff16815260200190815260200160002054905085811015611020576040517f08c379a0000000000000000000000000000000000000000000000000000000008152600401611017906124b3565b60405180910390fd5b85810360008089815260200190815260200160002060008b73ffffffffffffffffffffffffffffffffffffffff1673ffffffffffffffffffffffffffffffffffffffff168152602001908152602001600020819055508560008089815260200190815260200160002060008a73ffffffffffffffffffffffffffffffffffffffff1673ffffffffffffffffffffffffffffffffffffffff16815260200190815260200160002060008282546110d591906124d3565b925050819055508773ffffffffffffffffffffffffffffffffffffffff168973ffffffffffffffffffffffffffffffffffffffff168573ffffffffffffffffffffffffffffffffffffffff167fc3d58168c5ae7397731d063d5bbf3d657854427343f4c083240f7aacaa2d0f628a8a6040516111529291906125f2565b60405180910390a4611168848a8a86868a611189565b611176848a8a8a8a8a6113e2565b505050505050505050565b505050505050565b505050505050565b6111b08473ffffffffffffffffffffffffffffffffffffffff166115b9565b15611360578373ffffffffffffffffffffffffffffffffffffffff1663bc197c8187878686866040518663ffffffff1660e01b81526004016111f6959493929190612670565b6020604051808303816000875af192505050801561123257506040513d601f19601f8201168201806040525081019061122f91906126ed565b60015b6112d75761123e612727565b806308c379a00361129a5750611252612749565b8061125d575061129c565b806040517f08c379a00000000000000000000000000000000000000000000000000000000081526004016112919190611892565b60405180910390fd5b505b6040517f08c379a00000000000000000000000000000000000000000000000000000000081526004016112ce9061284b565b60405180910390fd5b63bc197c8160e01b7bffffffffffffffffffffffffffffffffffffffffffffffffffffffff1916817bffffffffffffffffffffffffffffffffffffffffffffffffffffffff19161461135e576040517f08c379a0000000000000000000000000000000000000000000000000000000008152600401611355906128dd565b60405180910390fd5b505b505050505050565b60606000600167ffffffffffffffff811115611387576113866118b9565b5b6040519080825280602002602001820160405280156113b55781602001602082028036833780820191505090505b50905082816000815181106113cd576113cc612153565b5b60200260200101818152505080915050919050565b6114018473ffffffffffffffffffffffffffffffffffffffff166115b9565b156115b1578373ffffffffffffffffffffffffffffffffffffffff1663f23a6e6187878686866040518663ffffffff1660e01b81526004016114479594939291906128fd565b6020604051808303816000875af192505050801561148357506040513d601f19601f8201168201806040525081019061148091906126ed565b60015b6115285761148f612727565b806308c379a0036114eb57506114a3612749565b806114ae57506114ed565b806040517f08c379a00000000000000000000000000000000000000000000000000000000081526004016114e29190611892565b60405180910390fd5b505b6040517f08c379a000000000000000000000000000000000000000000000000000000000815260040161151f9061284b565b60405180910390fd5b63f23a6e6160e01b7bffffffffffffffffffffffffffffffffffffffffffffffffffffffff1916817bffffffffffffffffffffffffffffffffffffffffffffffffffffffff1916146115af576040517f08c379a00000000000000000000000000000000000000000000000000000000081526004016115a6906128dd565b60405180910390fd5b505b505050505050565b6000808273ffffffffffffffffffffffffffffffffffffffff163b119050919050565b604051806102000160405280601090602082028036833780820191505090505090565b6000604051905090565b600080fd5b600080fd5b600073ffffffffffffffffffffffffffffffffffffffff82169050919050565b600061163e82611613565b9050919050565b61164e81611633565b811461165957600080fd5b50565b60008135905061166b81611645565b92915050565b6000819050919050565b61168481611671565b811461168f57600080fd5b50565b6000813590506116a18161167b565b92915050565b600080604083850312156116be576116bd611609565b5b60006116cc8582860161165c565b92505060206116dd85828601611692565b9150509250929050565b6116f081611671565b82525050565b600060208201905061170b60008301846116e7565b92915050565b60007fffffffff0000000000000000000000000000000000000000000000000000000082169050919050565b61174681611711565b811461175157600080fd5b50565b6000813590506117638161173d565b92915050565b60006020828403121561177f5761177e611609565b5b600061178d84828501611754565b91505092915050565b60008115159050919050565b6117ab81611796565b82525050565b60006020820190506117c660008301846117a2565b92915050565b6000602082840312156117e2576117e1611609565b5b60006117f084828501611692565b91505092915050565b600081519050919050565b600082825260208201905092915050565b60005b83811015611833578082015181840152602081019050611818565b83811115611842576000848401525b50505050565b6000601f19601f8301169050919050565b6000611864826117f9565b61186e8185611804565b935061187e818560208601611815565b61188781611848565b840191505092915050565b600060208201905081810360008301526118ac8184611859565b905092915050565b600080fd5b7f4e487b7100000000000000000000000000000000000000000000000000000000600052604160045260246000fd5b6118f182611848565b810181811067ffffffffffffffff821117156119105761190f6118b9565b5b80604052505050565b60006119236115ff565b905061192f82826118e8565b919050565b600067ffffffffffffffff82111561194f5761194e6118b9565b5b602082029050602081019050919050565b600080fd5b600061197861197384611934565b611919565b9050808382526020820190506020840283018581111561199b5761199a611960565b5b835b818110156119c457806119b08882611692565b84526020840193505060208101905061199d565b5050509392505050565b600082601f8301126119e3576119e26118b4565b5b81356119f3848260208601611965565b91505092915050565b600080fd5b600067ffffffffffffffff821115611a1c57611a1b6118b9565b5b611a2582611848565b9050602081019050919050565b82818337600083830152505050565b6000611a54611a4f84611a01565b611919565b905082815260208101848484011115611a7057611a6f6119fc565b5b611a7b848285611a32565b509392505050565b600082601f830112611a9857611a976118b4565b5b8135611aa8848260208601611a41565b91505092915050565b600080600080600060a08688031215611acd57611acc611609565b5b6000611adb8882890161165c565b9550506020611aec8882890161165c565b945050604086013567ffffffffffffffff811115611b0d57611b0c61160e565b5b611b19888289016119ce565b935050606086013567ffffffffffffffff811115611b3a57611b3961160e565b5b611b46888289016119ce565b925050608086013567ffffffffffffffff811115611b6757611b6661160e565b5b611b7388828901611a83565b9150509295509295909350565b600067ffffffffffffffff821115611b9b57611b9a6118b9565b5b602082029050602081019050919050565b6000611bbf611bba84611b80565b611919565b90508083825260208201905060208402830185811115611be257611be1611960565b5b835b81811015611c0b5780611bf7888261165c565b845260208401935050602081019050611be4565b5050509392505050565b600082601f830112611c2a57611c296118b4565b5b8135611c3a848260208601611bac565b91505092915050565b60008060408385031215611c5a57611c59611609565b5b600083013567ffffffffffffffff811115611c7857611c7761160e565b5b611c8485828601611c15565b925050602083013567ffffffffffffffff811115611ca557611ca461160e565b5b611cb1858286016119ce565b9150509250929050565b600081519050919050565b600082825260208201905092915050565b6000819050602082019050919050565b611cf081611671565b82525050565b6000611d028383611ce7565b60208301905092915050565b6000602082019050919050565b6000611d2682611cbb565b611d308185611cc6565b9350611d3b83611cd7565b8060005b83811015611d6c578151611d538882611cf6565b9750611d5e83611d0e565b925050600181019050611d3f565b5085935050505092915050565b60006020820190508181036000830152611d938184611d1b565b905092915050565b611da481611796565b8114611daf57600080fd5b50565b600081359050611dc181611d9b565b92915050565b60008060408385031215611dde57611ddd611609565b5b6000611dec8582860161165c565b9250506020611dfd85828601611db2565b9150509250929050565b60008060408385031215611e1e57611e1d611609565b5b6000611e2c8582860161165c565b9250506020611e3d8582860161165c565b9150509250929050565b600060109050919050565b600081905092915050565b6000819050919050565b611e7081611633565b82525050565b6000611e828383611e67565b60208301905092915050565b6000602082019050919050565b611ea481611e47565b611eae8184611e52565b9250611eb982611e5d565b8060005b83811015611eea578151611ed18782611e76565b9650611edc83611e8e565b925050600181019050611ebd565b505050505050565b600061020082019050611f086000830184611e9b565b92915050565b600080600080600060a08688031215611f2a57611f29611609565b5b6000611f388882890161165c565b9550506020611f498882890161165c565b9450506040611f5a88828901611692565b9350506060611f6b88828901611692565b925050608086013567ffffffffffffffff811115611f8c57611f8b61160e565b5b611f9888828901611a83565b9150509295509295909350565b611fae81611633565b82525050565b6000602082019050611fc96000830184611fa5565b92915050565b7f455243313135353a2062616c616e636520717565727920666f7220746865207a60008201527f65726f2061646472657373000000000000000000000000000000000000000000602082015250565b600061202b602b83611804565b915061203682611fcf565b604082019050919050565b6000602082019050818103600083015261205a8161201e565b9050919050565b7f4e487b7100000000000000000000000000000000000000000000000000000000600052602260045260246000fd5b600060028204905060018216806120a857607f821691505b6020821081036120bb576120ba612061565b5b50919050565b7f455243313135353a207472616e736665722063616c6c6572206973206e6f742060008201527f6f776e6572206e6f7220617070726f7665640000000000000000000000000000602082015250565b600061211d603283611804565b9150612128826120c1565b604082019050919050565b6000602082019050818103600083015261214c81612110565b9050919050565b7f4e487b7100000000000000000000000000000000000000000000000000000000600052603260045260246000fd5b7f455243313135353a206163636f756e747320616e6420696473206c656e67746860008201527f206d69736d617463680000000000000000000000000000000000000000000000602082015250565b60006121de602983611804565b91506121e982612182565b604082019050919050565b6000602082019050818103600083015261220d816121d1565b9050919050565b7f4e487b7100000000000000000000000000000000000000000000000000000000600052601160045260246000fd5b600061224e82611671565b91507fffffffffffffffffffffffffffffffffffffffffffffffffffffffffffffffff82036122805761227f612214565b5b600182019050919050565b7f455243313135353a2063616c6c6572206973206e6f74206f776e6572206e6f7260008201527f20617070726f7665640000000000000000000000000000000000000000000000602082015250565b60006122e7602983611804565b91506122f28261228b565b604082019050919050565b60006020820190508181036000830152612316816122da565b9050919050565b7f455243313135353a2069647320616e6420616d6f756e7473206c656e6774682060008201527f6d69736d61746368000000000000000000000000000000000000000000000000602082015250565b6000612379602883611804565b91506123848261231d565b604082019050919050565b600060208201905081810360008301526123a88161236c565b9050919050565b7f455243313135353a207472616e7366657220746f20746865207a65726f20616460008201527f6472657373000000000000000000000000000000000000000000000000000000602082015250565b600061240b602583611804565b9150612416826123af565b604082019050919050565b6000602082019050818103600083015261243a816123fe565b9050919050565b7f455243313135353a20696e73756666696369656e742062616c616e636520666f60008201527f72207472616e7366657200000000000000000000000000000000000000000000602082015250565b600061249d602a83611804565b91506124a882612441565b604082019050919050565b600060208201905081810360008301526124cc81612490565b9050919050565b60006124de82611671565b91506124e983611671565b9250827fffffffffffffffffffffffffffffffffffffffffffffffffffffffffffffffff0382111561251e5761251d612214565b5b828201905092915050565b600060408201905081810360008301526125438185611d1b565b905081810360208301526125578184611d1b565b90509392505050565b7f455243313135353a2073657474696e6720617070726f76616c2073746174757360008201527f20666f722073656c660000000000000000000000000000000000000000000000602082015250565b60006125bc602983611804565b91506125c782612560565b604082019050919050565b600060208201905081810360008301526125eb816125af565b9050919050565b600060408201905061260760008301856116e7565b61261460208301846116e7565b9392505050565b600081519050919050565b600082825260208201905092915050565b60006126428261261b565b61264c8185612626565b935061265c818560208601611815565b61266581611848565b840191505092915050565b600060a0820190506126856000830188611fa5565b6126926020830187611fa5565b81810360408301526126a48186611d1b565b905081810360608301526126b88185611d1b565b905081810360808301526126cc8184612637565b90509695505050505050565b6000815190506126e78161173d565b92915050565b60006020828403121561270357612702611609565b5b6000612711848285016126d8565b91505092915050565b60008160e01c9050919050565b600060033d11156127465760046000803e61274360005161271a565b90505b90565b600060443d106127d65761275b6115ff565b60043d036004823e80513d602482011167ffffffffffffffff821117156127835750506127d6565b808201805167ffffffffffffffff8111156127a157505050506127d6565b80602083010160043d0385018111156127be5750505050506127d6565b6127cd826020018501866118e8565b82955050505050505b90565b7f455243313135353a207472616e7366657220746f206e6f6e204552433131353560008201527f526563656976657220696d706c656d656e746572000000000000000000000000602082015250565b6000612835603483611804565b9150612840826127d9565b604082019050919050565b6000602082019050818103600083015261286481612828565b9050919050565b7f455243313135353a204552433131353552656365697665722072656a6563746560008201527f6420746f6b656e73000000000000000000000000000000000000000000000000602082015250565b60006128c7602883611804565b91506128d28261286b565b604082019050919050565b600060208201905081810360008301526128f6816128ba565b9050919050565b600060a0820190506129126000830188611fa5565b61291f6020830187611fa5565b61292c60408301866116e7565b61293960608301856116e7565b818103608083015261294b8184612637565b9050969550505050505056fea26469706673582212203632546847583c626a4ec476d64e0c326bb5cd4c8dd164198d124eb478c7fa3264736f6c634300080f003368747470733a2f2f67616d652e6578616d706c652f6170692f6974656d2f7b69647d2e6a736f6e",
  "immutableReferences": {},
  "source": "// contracts/Blocks.sol\n// SPDX-License-Identifier: MIT\npragma solidity ^0.8.0;\n\nimport \"openzeppelin-solidity/contracts/token/ERC1155/ERC1155.sol\";\n\ncontract Blocks is ERC1155 {\n    uint256 public constant GOLD = 0;\n    uint256 public constant SILVER = 1;\n    uint256 public constant THORS_HAMMER = 2;\n    uint256 public constant SWORD = 3;\n    uint256 public constant SHIELD = 4;\n\n    constructor() ERC1155(\"https://game.example/api/item/{id}.json\") {\n        // _mint(msg.sender, GOLD, 10**18, \"\");\n        // _mint(msg.sender, SILVER, 10**27, \"\");\n        // _mint(msg.sender, THORS_HAMMER, 1, \"\");\n        // _mint(msg.sender, SWORD, 10**9, \"\");\n        // _mint(msg.sender, SHIELD, 10**9, \"\");\n    }\n\n    address[16] public blockers;\n\n    // Adopting a pet\n    function mintABlock(uint blockId) public returns (uint) {\n        require(blockId >= 0 && blockId <= 15);\n\n        blockers[blockId] = msg.sender;\n\n        return blockId;\n    }\n\n    // Retrieving the adopters\n    function getBlockers() public view returns (address[16] memory) {\n        return blockers;\n    }\n}",
  "sourcePath": "/home/sa/Desktop/TopBlock/topblock/contracts/Blocks.sol",
  "compiler": {
    "name": "solc",
    "version": "0.8.15+commit.e14f2714.Emscripten.clang"
  },
  "schemaVersion": "3.4.7",
  "updatedAt": "2022-06-19T03:14:59.798Z",
  "networkType": "ethereum",
  "devdoc": {
    "kind": "dev",
    "methods": {
      "balanceOf(address,uint256)": {
        "details": "See {IERC1155-balanceOf}. Requirements: - `account` cannot be the zero address."
      },
      "balanceOfBatch(address[],uint256[])": {
        "details": "See {IERC1155-balanceOfBatch}. Requirements: - `accounts` and `ids` must have the same length."
      },
      "isApprovedForAll(address,address)": {
        "details": "See {IERC1155-isApprovedForAll}."
      },
      "safeBatchTransferFrom(address,address,uint256[],uint256[],bytes)": {
        "details": "See {IERC1155-safeBatchTransferFrom}."
      },
      "safeTransferFrom(address,address,uint256,uint256,bytes)": {
        "details": "See {IERC1155-safeTransferFrom}."
      },
      "setApprovalForAll(address,bool)": {
        "details": "See {IERC1155-setApprovalForAll}."
      },
      "supportsInterface(bytes4)": {
        "details": "See {IERC165-supportsInterface}."
      },
      "uri(uint256)": {
        "details": "See {IERC1155MetadataURI-uri}. This implementation returns the same URI for *all* token types. It relies on the token type ID substitution mechanism https://eips.ethereum.org/EIPS/eip-1155#metadata[defined in the EIP]. Clients calling this function must replace the `\\{id\\}` substring with the actual token type ID."
      }
    },
    "version": 1
  },
  "userdoc": {
    "kind": "user",
    "methods": {},
    "version": 1
  }
}