{
  "contractName": "Blocks",
  "abi": [
    {
      "inputs": [],
      "stateMutability": "nonpayable",
      "type": "constructor"
    },
    {
      "anonymous": false,
      "inputs": [
        {
          "indexed": true,
          "internalType": "address",
          "name": "account",
          "type": "address"
        },
        {
          "indexed": true,
          "internalType": "address",
          "name": "operator",
          "type": "address"
        },
        {
          "indexed": false,
          "internalType": "bool",
          "name": "approved",
          "type": "bool"
        }
      ],
      "name": "ApprovalForAll",
      "type": "event"
    },
    {
      "anonymous": false,
      "inputs": [
        {
          "indexed": true,
          "internalType": "address",
          "name": "operator",
          "type": "address"
        },
        {
          "indexed": true,
          "internalType": "address",
          "name": "from",
          "type": "address"
        },
        {
          "indexed": true,
          "internalType": "address",
          "name": "to",
          "type": "address"
        },
        {
          "indexed": false,
          "internalType": "uint256[]",
          "name": "ids",
          "type": "uint256[]"
        },
        {
          "indexed": false,
          "internalType": "uint256[]",
          "name": "values",
          "type": "uint256[]"
        }
      ],
      "name": "TransferBatch",
      "type": "event"
    },
    {
      "anonymous": false,
      "inputs": [
        {
          "indexed": true,
          "internalType": "address",
          "name": "operator",
          "type": "address"
        },
        {
          "indexed": true,
          "internalType": "address",
          "name": "from",
          "type": "address"
        },
        {
          "indexed": true,
          "internalType": "address",
          "name": "to",
          "type": "address"
        },
        {
          "indexed": false,
          "internalType": "uint256",
          "name": "id",
          "type": "uint256"
        },
        {
          "indexed": false,
          "internalType": "uint256",
          "name": "value",
          "type": "uint256"
        }
      ],
      "name": "TransferSingle",
      "type": "event"
    },
    {
      "anonymous": false,
      "inputs": [
        {
          "indexed": false,
          "internalType": "string",
          "name": "value",
          "type": "string"
        },
        {
          "indexed": true,
          "internalType": "uint256",
          "name": "id",
          "type": "uint256"
        }
      ],
      "name": "URI",
      "type": "event"
    },
    {
      "inputs": [],
      "name": "GOLD",
      "outputs": [
        {
          "internalType": "uint256",
          "name": "",
          "type": "uint256"
        }
      ],
      "stateMutability": "view",
      "type": "function",
      "constant": true
    },
    {
      "inputs": [],
      "name": "SHIELD",
      "outputs": [
        {
          "internalType": "uint256",
          "name": "",
          "type": "uint256"
        }
      ],
      "stateMutability": "view",
      "type": "function",
      "constant": true
    },
    {
      "inputs": [],
      "name": "SILVER",
      "outputs": [
        {
          "internalType": "uint256",
          "name": "",
          "type": "uint256"
        }
      ],
      "stateMutability": "view",
      "type": "function",
      "constant": true
    },
    {
      "inputs": [],
      "name": "SWORD",
      "outputs": [
        {
          "internalType": "uint256",
          "name": "",
          "type": "uint256"
        }
      ],
      "stateMutability": "view",
      "type": "function",
      "constant": true
    },
    {
      "inputs": [],
      "name": "THORS_HAMMER",
      "outputs": [
        {
          "internalType": "uint256",
          "name": "",
          "type": "uint256"
        }
      ],
      "stateMutability": "view",
      "type": "function",
      "constant": true
    },
    {
      "inputs": [
        {
          "internalType": "address",
          "name": "account",
          "type": "address"
        },
        {
          "internalType": "uint256",
          "name": "id",
          "type": "uint256"
        }
      ],
      "name": "balanceOf",
      "outputs": [
        {
          "internalType": "uint256",
          "name": "",
          "type": "uint256"
        }
      ],
      "stateMutability": "view",
      "type": "function",
      "constant": true
    },
    {
      "inputs": [
        {
          "internalType": "address[]",
          "name": "accounts",
          "type": "address[]"
        },
        {
          "internalType": "uint256[]",
          "name": "ids",
          "type": "uint256[]"
        }
      ],
      "name": "balanceOfBatch",
      "outputs": [
        {
          "internalType": "uint256[]",
          "name": "",
          "type": "uint256[]"
        }
      ],
      "stateMutability": "view",
      "type": "function",
      "constant": true
    },
    {
      "inputs": [
        {
          "internalType": "address",
          "name": "account",
          "type": "address"
        },
        {
          "internalType": "address",
          "name": "operator",
          "type": "address"
        }
      ],
      "name": "isApprovedForAll",
      "outputs": [
        {
          "internalType": "bool",
          "name": "",
          "type": "bool"
        }
      ],
      "stateMutability": "view",
      "type": "function",
      "constant": true
    },
    {
      "inputs": [
        {
          "internalType": "address",
          "name": "from",
          "type": "address"
        },
        {
          "internalType": "address",
          "name": "to",
          "type": "address"
        },
        {
          "internalType": "uint256[]",
          "name": "ids",
          "type": "uint256[]"
        },
        {
          "internalType": "uint256[]",
          "name": "amounts",
          "type": "uint256[]"
        },
        {
          "internalType": "bytes",
          "name": "data",
          "type": "bytes"
        }
      ],
      "name": "safeBatchTransferFrom",
      "outputs": [],
      "stateMutability": "nonpayable",
      "type": "function"
    },
    {
      "inputs": [
        {
          "internalType": "address",
          "name": "from",
          "type": "address"
        },
        {
          "internalType": "address",
          "name": "to",
          "type": "address"
        },
        {
          "internalType": "uint256",
          "name": "id",
          "type": "uint256"
        },
        {
          "internalType": "uint256",
          "name": "amount",
          "type": "uint256"
        },
        {
          "internalType": "bytes",
          "name": "data",
          "type": "bytes"
        }
      ],
      "name": "safeTransferFrom",
      "outputs": [],
      "stateMutability": "nonpayable",
      "type": "function"
    },
    {
      "inputs": [
        {
          "internalType": "address",
          "name": "operator",
          "type": "address"
        },
        {
          "internalType": "bool",
          "name": "approved",
          "type": "bool"
        }
      ],
      "name": "setApprovalForAll",
      "outputs": [],
      "stateMutability": "nonpayable",
      "type": "function"
    },
    {
      "inputs": [
        {
          "internalType": "bytes4",
          "name": "interfaceId",
          "type": "bytes4"
        }
      ],
      "name": "supportsInterface",
      "outputs": [
        {
          "internalType": "bool",
          "name": "",
          "type": "bool"
        }
      ],
      "stateMutability": "view",
      "type": "function",
      "constant": true
    },
    {
      "inputs": [
        {
          "internalType": "uint256",
          "name": "",
          "type": "uint256"
        }
      ],
      "name": "uri",
      "outputs": [
        {
          "internalType": "string",
          "name": "",
          "type": "string"
        }
      ],
      "stateMutability": "view",
      "type": "function",
      "constant": true
    }
  ],
  "bytecode": "0x60806040523480156200001157600080fd5b5060405180606001604052806027815260200162003404602791396200003d816200011560201b60201c565b506200006a336000670de0b6b3a7640000604051806020016040528060008152506200013160201b60201c565b6200009a3360016b033b2e3c9fd0803ce8000000604051806020016040528060008152506200013160201b60201c565b620000bf3360026001604051806020016040528060008152506200013160201b60201c565b620000e7336003633b9aca00604051806020016040528060008152506200013160201b60201c565b6200010f336004633b9aca00604051806020016040528060008152506200013160201b60201c565b62000d4a565b80600290805190602001906200012d929190620005cd565b5050565b600073ffffffffffffffffffffffffffffffffffffffff168473ffffffffffffffffffffffffffffffffffffffff1603620001a3576040517f08c379a00000000000000000000000000000000000000000000000000000000081526004016200019a9062000704565b60405180910390fd5b6000620001b56200031860201b60201c565b90506000620001ca856200032060201b60201c565b90506000620001df856200032060201b60201c565b9050620001f883600089858589620003a160201b60201c565b8460008088815260200190815260200160002060008973ffffffffffffffffffffffffffffffffffffffff1673ffffffffffffffffffffffffffffffffffffffff16815260200190815260200160002060008282546200025991906200075f565b925050819055508673ffffffffffffffffffffffffffffffffffffffff16600073ffffffffffffffffffffffffffffffffffffffff168473ffffffffffffffffffffffffffffffffffffffff167fc3d58168c5ae7397731d063d5bbf3d657854427343f4c083240f7aacaa2d0f628989604051620002d9929190620007cd565b60405180910390a4620002f883600089858589620003a960201b60201c565b6200030f83600089898989620003b160201b60201c565b50505050505050565b600033905090565b60606000600167ffffffffffffffff811115620003425762000341620007fa565b5b604051908082528060200260200182016040528015620003715781602001602082028036833780820191505090505b50905082816000815181106200038c576200038b62000829565b5b60200260200101818152505080915050919050565b505050505050565b505050505050565b620003dd8473ffffffffffffffffffffffffffffffffffffffff16620005aa60201b620008091760201c565b15620005a2578373ffffffffffffffffffffffffffffffffffffffff1663f23a6e6187878686866040518663ffffffff1660e01b81526004016200042695949392919062000941565b6020604051808303816000875af19250505080156200046557506040513d601f19601f8201168201806040525081019062000462919062000a11565b60015b62000516576200047462000a50565b806308c379a003620004d757506200048b62000aab565b80620004985750620004d9565b806040517f08c379a0000000000000000000000000000000000000000000000000000000008152600401620004ce919062000b92565b60405180910390fd5b505b6040517f08c379a00000000000000000000000000000000000000000000000000000000081526004016200050d9062000c2c565b60405180910390fd5b63f23a6e6160e01b7bffffffffffffffffffffffffffffffffffffffffffffffffffffffff1916817bffffffffffffffffffffffffffffffffffffffffffffffffffffffff191614620005a0576040517f08c379a0000000000000000000000000000000000000000000000000000000008152600401620005979062000cc4565b60405180910390fd5b505b505050505050565b6000808273ffffffffffffffffffffffffffffffffffffffff163b119050919050565b828054620005db9062000d15565b90600052602060002090601f016020900481019282620005ff57600085556200064b565b82601f106200061a57805160ff19168380011785556200064b565b828001600101855582156200064b579182015b828111156200064a5782518255916020019190600101906200062d565b5b5090506200065a91906200065e565b5090565b5b80821115620006795760008160009055506001016200065f565b5090565b600082825260208201905092915050565b7f455243313135353a206d696e7420746f20746865207a65726f2061646472657360008201527f7300000000000000000000000000000000000000000000000000000000000000602082015250565b6000620006ec6021836200067d565b9150620006f9826200068e565b604082019050919050565b600060208201905081810360008301526200071f81620006dd565b9050919050565b6000819050919050565b7f4e487b7100000000000000000000000000000000000000000000000000000000600052601160045260246000fd5b60006200076c8262000726565b9150620007798362000726565b9250827fffffffffffffffffffffffffffffffffffffffffffffffffffffffffffffffff03821115620007b157620007b062000730565b5b828201905092915050565b620007c78162000726565b82525050565b6000604082019050620007e46000830185620007bc565b620007f36020830184620007bc565b9392505050565b7f4e487b7100000000000000000000000000000000000000000000000000000000600052604160045260246000fd5b7f4e487b7100000000000000000000000000000000000000000000000000000000600052603260045260246000fd5b600073ffffffffffffffffffffffffffffffffffffffff82169050919050565b6000620008858262000858565b9050919050565b620008978162000878565b82525050565b600081519050919050565b600082825260208201905092915050565b60005b83811015620008d9578082015181840152602081019050620008bc565b83811115620008e9576000848401525b50505050565b6000601f19601f8301169050919050565b60006200090d826200089d565b620009198185620008a8565b93506200092b818560208601620008b9565b6200093681620008ef565b840191505092915050565b600060a0820190506200095860008301886200088c565b6200096760208301876200088c565b620009766040830186620007bc565b620009856060830185620007bc565b818103608083015262000999818462000900565b90509695505050505050565b6000604051905090565b600080fd5b60007fffffffff0000000000000000000000000000000000000000000000000000000082169050919050565b620009eb81620009b4565b8114620009f757600080fd5b50565b60008151905062000a0b81620009e0565b92915050565b60006020828403121562000a2a5762000a29620009af565b5b600062000a3a84828501620009fa565b91505092915050565b60008160e01c9050919050565b600060033d111562000a725760046000803e62000a6f60005162000a43565b90505b90565b62000a8082620008ef565b810181811067ffffffffffffffff8211171562000aa25762000aa1620007fa565b5b80604052505050565b600060443d1062000b435762000ac0620009a5565b60043d036004823e80513d602482011167ffffffffffffffff8211171562000aea57505062000b43565b808201805167ffffffffffffffff81111562000b0a575050505062000b43565b80602083010160043d03850181111562000b2957505050505062000b43565b62000b3a8260200185018662000a75565b82955050505050505b90565b600081519050919050565b600062000b5e8262000b46565b62000b6a81856200067d565b935062000b7c818560208601620008b9565b62000b8781620008ef565b840191505092915050565b6000602082019050818103600083015262000bae818462000b51565b905092915050565b7f455243313135353a207472616e7366657220746f206e6f6e204552433131353560008201527f526563656976657220696d706c656d656e746572000000000000000000000000602082015250565b600062000c146034836200067d565b915062000c218262000bb6565b604082019050919050565b6000602082019050818103600083015262000c478162000c05565b9050919050565b7f455243313135353a204552433131353552656365697665722072656a6563746560008201527f6420746f6b656e73000000000000000000000000000000000000000000000000602082015250565b600062000cac6028836200067d565b915062000cb98262000c4e565b604082019050919050565b6000602082019050818103600083015262000cdf8162000c9d565b9050919050565b7f4e487b7100000000000000000000000000000000000000000000000000000000600052602260045260246000fd5b6000600282049050600182168062000d2e57607f821691505b60208210810362000d445762000d4362000ce6565b5b50919050565b6126aa8062000d5a6000396000f3fe608060405234801561001057600080fd5b50600436106100ce5760003560e01c80634e1273f41161008c578063d562e20411610066578063d562e20414610225578063e3e55f0814610243578063e985e9c514610261578063f242432a14610291576100ce565b80634e1273f4146101bb5780635b2725ed146101eb578063a22cb46514610209576100ce565b8062fdd58e146100d357806301ffc9a7146101035780630e89341c1461013357806313dc989f146101635780632eb2c2d6146101815780633e4bee381461019d575b600080fd5b6100ed60048036038101906100e891906114a6565b6102ad565b6040516100fa91906114f5565b60405180910390f35b61011d60048036038101906101189190611568565b610375565b60405161012a91906115b0565b60405180910390f35b61014d600480360381019061014891906115cb565b610457565b60405161015a9190611691565b60405180910390f35b61016b6104eb565b60405161017891906114f5565b60405180910390f35b61019b600480360381019061019691906118b0565b6104f0565b005b6101a5610591565b6040516101b291906114f5565b60405180910390f35b6101d560048036038101906101d09190611a42565b610596565b6040516101e29190611b78565b60405180910390f35b6101f36106af565b60405161020091906114f5565b60405180910390f35b610223600480360381019061021e9190611bc6565b6106b4565b005b61022d6106ca565b60405161023a91906114f5565b60405180910390f35b61024b6106cf565b60405161025891906114f5565b60405180910390f35b61027b60048036038101906102769190611c06565b6106d4565b60405161028891906115b0565b60405180910390f35b6102ab60048036038101906102a69190611c46565b610768565b005b60008073ffffffffffffffffffffffffffffffffffffffff168373ffffffffffffffffffffffffffffffffffffffff160361031d576040517f08c379a000000000000000000000000000000000000000000000000000000000815260040161031490611d4f565b60405180910390fd5b60008083815260200190815260200160002060008473ffffffffffffffffffffffffffffffffffffffff1673ffffffffffffffffffffffffffffffffffffffff16815260200190815260200160002054905092915050565b60007fd9b67a26000000000000000000000000000000000000000000000000000000007bffffffffffffffffffffffffffffffffffffffffffffffffffffffff1916827bffffffffffffffffffffffffffffffffffffffffffffffffffffffff1916148061044057507f0e89341c000000000000000000000000000000000000000000000000000000007bffffffffffffffffffffffffffffffffffffffffffffffffffffffff1916827bffffffffffffffffffffffffffffffffffffffffffffffffffffffff1916145b80610450575061044f8261082c565b5b9050919050565b60606002805461046690611d9e565b80601f016020809104026020016040519081016040528092919081815260200182805461049290611d9e565b80156104df5780601f106104b4576101008083540402835291602001916104df565b820191906000526020600020905b8154815290600101906020018083116104c257829003601f168201915b50505050509050919050565b600381565b6104f8610896565b73ffffffffffffffffffffffffffffffffffffffff168573ffffffffffffffffffffffffffffffffffffffff16148061053e575061053d85610538610896565b6106d4565b5b61057d576040517f08c379a000000000000000000000000000000000000000000000000000000000815260040161057490611e41565b60405180910390fd5b61058a858585858561089e565b5050505050565b600081565b606081518351146105dc576040517f08c379a00000000000000000000000000000000000000000000000000000000081526004016105d390611ed3565b60405180910390fd5b6000835167ffffffffffffffff8111156105f9576105f86116b8565b5b6040519080825280602002602001820160405280156106275781602001602082028036833780820191505090505b50905060005b84518110156106a45761067485828151811061064c5761064b611ef3565b5b602002602001015185838151811061066757610666611ef3565b5b60200260200101516102ad565b82828151811061068757610686611ef3565b5b6020026020010181815250508061069d90611f51565b905061062d565b508091505092915050565b600481565b6106c66106bf610896565b8383610bbf565b5050565b600281565b600181565b6000600160008473ffffffffffffffffffffffffffffffffffffffff1673ffffffffffffffffffffffffffffffffffffffff16815260200190815260200160002060008373ffffffffffffffffffffffffffffffffffffffff1673ffffffffffffffffffffffffffffffffffffffff16815260200190815260200160002060009054906101000a900460ff16905092915050565b610770610896565b73ffffffffffffffffffffffffffffffffffffffff168573ffffffffffffffffffffffffffffffffffffffff1614806107b657506107b5856107b0610896565b6106d4565b5b6107f5576040517f08c379a00000000000000000000000000000000000000000000000000000000081526004016107ec9061200b565b60405180910390fd5b6108028585858585610d2b565b5050505050565b6000808273ffffffffffffffffffffffffffffffffffffffff163b119050919050565b60007f01ffc9a7000000000000000000000000000000000000000000000000000000007bffffffffffffffffffffffffffffffffffffffffffffffffffffffff1916827bffffffffffffffffffffffffffffffffffffffffffffffffffffffff1916149050919050565b600033905090565b81518351146108e2576040517f08c379a00000000000000000000000000000000000000000000000000000000081526004016108d99061209d565b60405180910390fd5b600073ffffffffffffffffffffffffffffffffffffffff168473ffffffffffffffffffffffffffffffffffffffff1603610951576040517f08c379a00000000000000000000000000000000000000000000000000000000081526004016109489061212f565b60405180910390fd5b600061095b610896565b905061096b818787878787610fc6565b60005b8451811015610b1c57600085828151811061098c5761098b611ef3565b5b6020026020010151905060008583815181106109ab576109aa611ef3565b5b60200260200101519050600080600084815260200190815260200160002060008b73ffffffffffffffffffffffffffffffffffffffff1673ffffffffffffffffffffffffffffffffffffffff16815260200190815260200160002054905081811015610a4c576040517f08c379a0000000000000000000000000000000000000000000000000000000008152600401610a43906121c1565b60405180910390fd5b81810360008085815260200190815260200160002060008c73ffffffffffffffffffffffffffffffffffffffff1673ffffffffffffffffffffffffffffffffffffffff168152602001908152602001600020819055508160008085815260200190815260200160002060008b73ffffffffffffffffffffffffffffffffffffffff1673ffffffffffffffffffffffffffffffffffffffff1681526020019081526020016000206000828254610b0191906121e1565b9250508190555050505080610b1590611f51565b905061096e565b508473ffffffffffffffffffffffffffffffffffffffff168673ffffffffffffffffffffffffffffffffffffffff168273ffffffffffffffffffffffffffffffffffffffff167f4a39dc06d4c0dbc64b70af90fd698a233a518aa5d07e595d983b8c0526c8f7fb8787604051610b93929190612237565b60405180910390a4610ba9818787878787610fce565b610bb7818787878787610fd6565b505050505050565b8173ffffffffffffffffffffffffffffffffffffffff168373ffffffffffffffffffffffffffffffffffffffff1603610c2d576040517f08c379a0000000000000000000000000000000000000000000000000000000008152600401610c24906122e0565b60405180910390fd5b80600160008573ffffffffffffffffffffffffffffffffffffffff1673ffffffffffffffffffffffffffffffffffffffff16815260200190815260200160002060008473ffffffffffffffffffffffffffffffffffffffff1673ffffffffffffffffffffffffffffffffffffffff16815260200190815260200160002060006101000a81548160ff0219169083151502179055508173ffffffffffffffffffffffffffffffffffffffff168373ffffffffffffffffffffffffffffffffffffffff167f17307eab39ab6107e8899845ad3d59bd9653f200f220920489ca2b5937696c3183604051610d1e91906115b0565b60405180910390a3505050565b600073ffffffffffffffffffffffffffffffffffffffff168473ffffffffffffffffffffffffffffffffffffffff1603610d9a576040517f08c379a0000000000000000000000000000000000000000000000000000000008152600401610d919061212f565b60405180910390fd5b6000610da4610896565b90506000610db1856111ad565b90506000610dbe856111ad565b9050610dce838989858589610fc6565b600080600088815260200190815260200160002060008a73ffffffffffffffffffffffffffffffffffffffff1673ffffffffffffffffffffffffffffffffffffffff16815260200190815260200160002054905085811015610e65576040517f08c379a0000000000000000000000000000000000000000000000000000000008152600401610e5c906121c1565b60405180910390fd5b85810360008089815260200190815260200160002060008b73ffffffffffffffffffffffffffffffffffffffff1673ffffffffffffffffffffffffffffffffffffffff168152602001908152602001600020819055508560008089815260200190815260200160002060008a73ffffffffffffffffffffffffffffffffffffffff1673ffffffffffffffffffffffffffffffffffffffff1681526020019081526020016000206000828254610f1a91906121e1565b925050819055508773ffffffffffffffffffffffffffffffffffffffff168973ffffffffffffffffffffffffffffffffffffffff168573ffffffffffffffffffffffffffffffffffffffff167fc3d58168c5ae7397731d063d5bbf3d657854427343f4c083240f7aacaa2d0f628a8a604051610f97929190612300565b60405180910390a4610fad848a8a86868a610fce565b610fbb848a8a8a8a8a611227565b505050505050505050565b505050505050565b505050505050565b610ff58473ffffffffffffffffffffffffffffffffffffffff16610809565b156111a5578373ffffffffffffffffffffffffffffffffffffffff1663bc197c8187878686866040518663ffffffff1660e01b815260040161103b95949392919061238d565b6020604051808303816000875af192505050801561107757506040513d601f19601f82011682018060405250810190611074919061240a565b60015b61111c57611083612444565b806308c379a0036110df5750611097612466565b806110a257506110e1565b806040517f08c379a00000000000000000000000000000000000000000000000000000000081526004016110d69190611691565b60405180910390fd5b505b6040517f08c379a000000000000000000000000000000000000000000000000000000000815260040161111390612568565b60405180910390fd5b63bc197c8160e01b7bffffffffffffffffffffffffffffffffffffffffffffffffffffffff1916817bffffffffffffffffffffffffffffffffffffffffffffffffffffffff1916146111a3576040517f08c379a000000000000000000000000000000000000000000000000000000000815260040161119a906125fa565b60405180910390fd5b505b505050505050565b60606000600167ffffffffffffffff8111156111cc576111cb6116b8565b5b6040519080825280602002602001820160405280156111fa5781602001602082028036833780820191505090505b509050828160008151811061121257611211611ef3565b5b60200260200101818152505080915050919050565b6112468473ffffffffffffffffffffffffffffffffffffffff16610809565b156113f6578373ffffffffffffffffffffffffffffffffffffffff1663f23a6e6187878686866040518663ffffffff1660e01b815260040161128c95949392919061261a565b6020604051808303816000875af19250505080156112c857506040513d601f19601f820116820180604052508101906112c5919061240a565b60015b61136d576112d4612444565b806308c379a00361133057506112e8612466565b806112f35750611332565b806040517f08c379a00000000000000000000000000000000000000000000000000000000081526004016113279190611691565b60405180910390fd5b505b6040517f08c379a000000000000000000000000000000000000000000000000000000000815260040161136490612568565b60405180910390fd5b63f23a6e6160e01b7bffffffffffffffffffffffffffffffffffffffffffffffffffffffff1916817bffffffffffffffffffffffffffffffffffffffffffffffffffffffff1916146113f4576040517f08c379a00000000000000000000000000000000000000000000000000000000081526004016113eb906125fa565b60405180910390fd5b505b505050505050565b6000604051905090565b600080fd5b600080fd5b600073ffffffffffffffffffffffffffffffffffffffff82169050919050565b600061143d82611412565b9050919050565b61144d81611432565b811461145857600080fd5b50565b60008135905061146a81611444565b92915050565b6000819050919050565b61148381611470565b811461148e57600080fd5b50565b6000813590506114a08161147a565b92915050565b600080604083850312156114bd576114bc611408565b5b60006114cb8582860161145b565b92505060206114dc85828601611491565b9150509250929050565b6114ef81611470565b82525050565b600060208201905061150a60008301846114e6565b92915050565b60007fffffffff0000000000000000000000000000000000000000000000000000000082169050919050565b61154581611510565b811461155057600080fd5b50565b6000813590506115628161153c565b92915050565b60006020828403121561157e5761157d611408565b5b600061158c84828501611553565b91505092915050565b60008115159050919050565b6115aa81611595565b82525050565b60006020820190506115c560008301846115a1565b92915050565b6000602082840312156115e1576115e0611408565b5b60006115ef84828501611491565b91505092915050565b600081519050919050565b600082825260208201905092915050565b60005b83811015611632578082015181840152602081019050611617565b83811115611641576000848401525b50505050565b6000601f19601f8301169050919050565b6000611663826115f8565b61166d8185611603565b935061167d818560208601611614565b61168681611647565b840191505092915050565b600060208201905081810360008301526116ab8184611658565b905092915050565b600080fd5b7f4e487b7100000000000000000000000000000000000000000000000000000000600052604160045260246000fd5b6116f082611647565b810181811067ffffffffffffffff8211171561170f5761170e6116b8565b5b80604052505050565b60006117226113fe565b905061172e82826116e7565b919050565b600067ffffffffffffffff82111561174e5761174d6116b8565b5b602082029050602081019050919050565b600080fd5b600061177761177284611733565b611718565b9050808382526020820190506020840283018581111561179a5761179961175f565b5b835b818110156117c357806117af8882611491565b84526020840193505060208101905061179c565b5050509392505050565b600082601f8301126117e2576117e16116b3565b5b81356117f2848260208601611764565b91505092915050565b600080fd5b600067ffffffffffffffff82111561181b5761181a6116b8565b5b61182482611647565b9050602081019050919050565b82818337600083830152505050565b600061185361184e84611800565b611718565b90508281526020810184848401111561186f5761186e6117fb565b5b61187a848285611831565b509392505050565b600082601f830112611897576118966116b3565b5b81356118a7848260208601611840565b91505092915050565b600080600080600060a086880312156118cc576118cb611408565b5b60006118da8882890161145b565b95505060206118eb8882890161145b565b945050604086013567ffffffffffffffff81111561190c5761190b61140d565b5b611918888289016117cd565b935050606086013567ffffffffffffffff8111156119395761193861140d565b5b611945888289016117cd565b925050608086013567ffffffffffffffff8111156119665761196561140d565b5b61197288828901611882565b9150509295509295909350565b600067ffffffffffffffff82111561199a576119996116b8565b5b602082029050602081019050919050565b60006119be6119b98461197f565b611718565b905080838252602082019050602084028301858111156119e1576119e061175f565b5b835b81811015611a0a57806119f6888261145b565b8452602084019350506020810190506119e3565b5050509392505050565b600082601f830112611a2957611a286116b3565b5b8135611a398482602086016119ab565b91505092915050565b60008060408385031215611a5957611a58611408565b5b600083013567ffffffffffffffff811115611a7757611a7661140d565b5b611a8385828601611a14565b925050602083013567ffffffffffffffff811115611aa457611aa361140d565b5b611ab0858286016117cd565b9150509250929050565b600081519050919050565b600082825260208201905092915050565b6000819050602082019050919050565b611aef81611470565b82525050565b6000611b018383611ae6565b60208301905092915050565b6000602082019050919050565b6000611b2582611aba565b611b2f8185611ac5565b9350611b3a83611ad6565b8060005b83811015611b6b578151611b528882611af5565b9750611b5d83611b0d565b925050600181019050611b3e565b5085935050505092915050565b60006020820190508181036000830152611b928184611b1a565b905092915050565b611ba381611595565b8114611bae57600080fd5b50565b600081359050611bc081611b9a565b92915050565b60008060408385031215611bdd57611bdc611408565b5b6000611beb8582860161145b565b9250506020611bfc85828601611bb1565b9150509250929050565b60008060408385031215611c1d57611c1c611408565b5b6000611c2b8582860161145b565b9250506020611c3c8582860161145b565b9150509250929050565b600080600080600060a08688031215611c6257611c61611408565b5b6000611c708882890161145b565b9550506020611c818882890161145b565b9450506040611c9288828901611491565b9350506060611ca388828901611491565b925050608086013567ffffffffffffffff811115611cc457611cc361140d565b5b611cd088828901611882565b9150509295509295909350565b7f455243313135353a2062616c616e636520717565727920666f7220746865207a60008201527f65726f2061646472657373000000000000000000000000000000000000000000602082015250565b6000611d39602b83611603565b9150611d4482611cdd565b604082019050919050565b60006020820190508181036000830152611d6881611d2c565b9050919050565b7f4e487b7100000000000000000000000000000000000000000000000000000000600052602260045260246000fd5b60006002820490506001821680611db657607f821691505b602082108103611dc957611dc8611d6f565b5b50919050565b7f455243313135353a207472616e736665722063616c6c6572206973206e6f742060008201527f6f776e6572206e6f7220617070726f7665640000000000000000000000000000602082015250565b6000611e2b603283611603565b9150611e3682611dcf565b604082019050919050565b60006020820190508181036000830152611e5a81611e1e565b9050919050565b7f455243313135353a206163636f756e747320616e6420696473206c656e67746860008201527f206d69736d617463680000000000000000000000000000000000000000000000602082015250565b6000611ebd602983611603565b9150611ec882611e61565b604082019050919050565b60006020820190508181036000830152611eec81611eb0565b9050919050565b7f4e487b7100000000000000000000000000000000000000000000000000000000600052603260045260246000fd5b7f4e487b7100000000000000000000000000000000000000000000000000000000600052601160045260246000fd5b6000611f5c82611470565b91507fffffffffffffffffffffffffffffffffffffffffffffffffffffffffffffffff8203611f8e57611f8d611f22565b5b600182019050919050565b7f455243313135353a2063616c6c6572206973206e6f74206f776e6572206e6f7260008201527f20617070726f7665640000000000000000000000000000000000000000000000602082015250565b6000611ff5602983611603565b915061200082611f99565b604082019050919050565b6000602082019050818103600083015261202481611fe8565b9050919050565b7f455243313135353a2069647320616e6420616d6f756e7473206c656e6774682060008201527f6d69736d61746368000000000000000000000000000000000000000000000000602082015250565b6000612087602883611603565b91506120928261202b565b604082019050919050565b600060208201905081810360008301526120b68161207a565b9050919050565b7f455243313135353a207472616e7366657220746f20746865207a65726f20616460008201527f6472657373000000000000000000000000000000000000000000000000000000602082015250565b6000612119602583611603565b9150612124826120bd565b604082019050919050565b600060208201905081810360008301526121488161210c565b9050919050565b7f455243313135353a20696e73756666696369656e742062616c616e636520666f60008201527f72207472616e7366657200000000000000000000000000000000000000000000602082015250565b60006121ab602a83611603565b91506121b68261214f565b604082019050919050565b600060208201905081810360008301526121da8161219e565b9050919050565b60006121ec82611470565b91506121f783611470565b9250827fffffffffffffffffffffffffffffffffffffffffffffffffffffffffffffffff0382111561222c5761222b611f22565b5b828201905092915050565b600060408201905081810360008301526122518185611b1a565b905081810360208301526122658184611b1a565b90509392505050565b7f455243313135353a2073657474696e6720617070726f76616c2073746174757360008201527f20666f722073656c660000000000000000000000000000000000000000000000602082015250565b60006122ca602983611603565b91506122d58261226e565b604082019050919050565b600060208201905081810360008301526122f9816122bd565b9050919050565b600060408201905061231560008301856114e6565b61232260208301846114e6565b9392505050565b61233281611432565b82525050565b600081519050919050565b600082825260208201905092915050565b600061235f82612338565b6123698185612343565b9350612379818560208601611614565b61238281611647565b840191505092915050565b600060a0820190506123a26000830188612329565b6123af6020830187612329565b81810360408301526123c18186611b1a565b905081810360608301526123d58185611b1a565b905081810360808301526123e98184612354565b90509695505050505050565b6000815190506124048161153c565b92915050565b6000602082840312156124205761241f611408565b5b600061242e848285016123f5565b91505092915050565b60008160e01c9050919050565b600060033d11156124635760046000803e612460600051612437565b90505b90565b600060443d106124f3576124786113fe565b60043d036004823e80513d602482011167ffffffffffffffff821117156124a05750506124f3565b808201805167ffffffffffffffff8111156124be57505050506124f3565b80602083010160043d0385018111156124db5750505050506124f3565b6124ea826020018501866116e7565b82955050505050505b90565b7f455243313135353a207472616e7366657220746f206e6f6e204552433131353560008201527f526563656976657220696d706c656d656e746572000000000000000000000000602082015250565b6000612552603483611603565b915061255d826124f6565b604082019050919050565b6000602082019050818103600083015261258181612545565b9050919050565b7f455243313135353a204552433131353552656365697665722072656a6563746560008201527f6420746f6b656e73000000000000000000000000000000000000000000000000602082015250565b60006125e4602883611603565b91506125ef82612588565b604082019050919050565b60006020820190508181036000830152612613816125d7565b9050919050565b600060a08201905061262f6000830188612329565b61263c6020830187612329565b61264960408301866114e6565b61265660608301856114e6565b81810360808301526126688184612354565b9050969550505050505056fea2646970667358221220006f992372270b9a7d936c0e9cd2cc94a94fe777ed831dc662d5f7f1f830921564736f6c634300080e003368747470733a2f2f67616d652e6578616d706c652f6170692f6974656d2f7b69647d2e6a736f6e",
  "immutableReferences": {},
  "source": "// contracts/Blocks.sol\n// SPDX-License-Identifier: MIT\npragma solidity ^0.8.0;\n\nimport \"openzeppelin-solidity/contracts/token/ERC1155/ERC1155.sol\";\n\ncontract Blocks is ERC1155 {\n    uint256 public constant GOLD = 0;\n    uint256 public constant SILVER = 1;\n    uint256 public constant THORS_HAMMER = 2;\n    uint256 public constant SWORD = 3;\n    uint256 public constant SHIELD = 4;\n\n    constructor() ERC1155(\"https://game.example/api/item/{id}.json\") {\n        _mint(msg.sender, GOLD, 10**18, \"\");\n        _mint(msg.sender, SILVER, 10**27, \"\");\n        _mint(msg.sender, THORS_HAMMER, 1, \"\");\n        _mint(msg.sender, SWORD, 10**9, \"\");\n        _mint(msg.sender, SHIELD, 10**9, \"\");\n    }\n}",
  "sourcePath": "/home/sa/Desktop/Blocks/contracts/Blocks.sol",
  "compiler": {
    "name": "solc",
    "version": "0.8.14+commit.80d49f37.Emscripten.clang"
  },
  "schemaVersion": "3.4.7",
  "updatedAt": "2022-06-07T02:13:28.900Z",
  "networkType": "ethereum",
  "devdoc": {
    "kind": "dev",
    "methods": {
      "balanceOf(address,uint256)": {
        "details": "See {IERC1155-balanceOf}. Requirements: - `account` cannot be the zero address."
      },
      "balanceOfBatch(address[],uint256[])": {
        "details": "See {IERC1155-balanceOfBatch}. Requirements: - `accounts` and `ids` must have the same length."
      },
      "isApprovedForAll(address,address)": {
        "details": "See {IERC1155-isApprovedForAll}."
      },
      "safeBatchTransferFrom(address,address,uint256[],uint256[],bytes)": {
        "details": "See {IERC1155-safeBatchTransferFrom}."
      },
      "safeTransferFrom(address,address,uint256,uint256,bytes)": {
        "details": "See {IERC1155-safeTransferFrom}."
      },
      "setApprovalForAll(address,bool)": {
        "details": "See {IERC1155-setApprovalForAll}."
      },
      "supportsInterface(bytes4)": {
        "details": "See {IERC165-supportsInterface}."
      },
      "uri(uint256)": {
        "details": "See {IERC1155MetadataURI-uri}. This implementation returns the same URI for *all* token types. It relies on the token type ID substitution mechanism https://eips.ethereum.org/EIPS/eip-1155#metadata[defined in the EIP]. Clients calling this function must replace the `\\{id\\}` substring with the actual token type ID."
      }
    },
    "version": 1
  },
  "userdoc": {
    "kind": "user",
    "methods": {},
    "version": 1
  }
}