{
  "contractName": "Migrations",
  "abi": [
    {
      "inputs": [],
      "stateMutability": "nonpayable",
      "type": "constructor"
    },
    {
      "anonymous": false,
      "inputs": [
        {
          "indexed": true,
          "internalType": "address",
          "name": "account",
          "type": "address"
        },
        {
          "indexed": true,
          "internalType": "address",
          "name": "operator",
          "type": "address"
        },
        {
          "indexed": false,
          "internalType": "bool",
          "name": "approved",
          "type": "bool"
        }
      ],
      "name": "ApprovalForAll",
      "type": "event"
    },
    {
      "anonymous": false,
      "inputs": [
        {
          "indexed": true,
          "internalType": "address",
          "name": "operator",
          "type": "address"
        },
        {
          "indexed": true,
          "internalType": "address",
          "name": "from",
          "type": "address"
        },
        {
          "indexed": true,
          "internalType": "address",
          "name": "to",
          "type": "address"
        },
        {
          "indexed": false,
          "internalType": "uint256[]",
          "name": "ids",
          "type": "uint256[]"
        },
        {
          "indexed": false,
          "internalType": "uint256[]",
          "name": "values",
          "type": "uint256[]"
        }
      ],
      "name": "TransferBatch",
      "type": "event"
    },
    {
      "anonymous": false,
      "inputs": [
        {
          "indexed": true,
          "internalType": "address",
          "name": "operator",
          "type": "address"
        },
        {
          "indexed": true,
          "internalType": "address",
          "name": "from",
          "type": "address"
        },
        {
          "indexed": true,
          "internalType": "address",
          "name": "to",
          "type": "address"
        },
        {
          "indexed": false,
          "internalType": "uint256",
          "name": "id",
          "type": "uint256"
        },
        {
          "indexed": false,
          "internalType": "uint256",
          "name": "value",
          "type": "uint256"
        }
      ],
      "name": "TransferSingle",
      "type": "event"
    },
    {
      "anonymous": false,
      "inputs": [
        {
          "indexed": false,
          "internalType": "string",
          "name": "value",
          "type": "string"
        },
        {
          "indexed": true,
          "internalType": "uint256",
          "name": "id",
          "type": "uint256"
        }
      ],
      "name": "URI",
      "type": "event"
    },
    {
      "inputs": [
        {
          "internalType": "address",
          "name": "account",
          "type": "address"
        },
        {
          "internalType": "uint256",
          "name": "id",
          "type": "uint256"
        }
      ],
      "name": "balanceOf",
      "outputs": [
        {
          "internalType": "uint256",
          "name": "",
          "type": "uint256"
        }
      ],
      "stateMutability": "view",
      "type": "function",
      "constant": true
    },
    {
      "inputs": [
        {
          "internalType": "address[]",
          "name": "accounts",
          "type": "address[]"
        },
        {
          "internalType": "uint256[]",
          "name": "ids",
          "type": "uint256[]"
        }
      ],
      "name": "balanceOfBatch",
      "outputs": [
        {
          "internalType": "uint256[]",
          "name": "",
          "type": "uint256[]"
        }
      ],
      "stateMutability": "view",
      "type": "function",
      "constant": true
    },
    {
      "inputs": [
        {
          "internalType": "address",
          "name": "account",
          "type": "address"
        },
        {
          "internalType": "address",
          "name": "operator",
          "type": "address"
        }
      ],
      "name": "isApprovedForAll",
      "outputs": [
        {
          "internalType": "bool",
          "name": "",
          "type": "bool"
        }
      ],
      "stateMutability": "view",
      "type": "function",
      "constant": true
    },
    {
      "inputs": [],
      "name": "last_completed_migration",
      "outputs": [
        {
          "internalType": "uint256",
          "name": "",
          "type": "uint256"
        }
      ],
      "stateMutability": "view",
      "type": "function",
      "constant": true
    },
    {
      "inputs": [],
      "name": "owner",
      "outputs": [
        {
          "internalType": "address",
          "name": "",
          "type": "address"
        }
      ],
      "stateMutability": "view",
      "type": "function",
      "constant": true
    },
    {
      "inputs": [
        {
          "internalType": "address",
          "name": "from",
          "type": "address"
        },
        {
          "internalType": "address",
          "name": "to",
          "type": "address"
        },
        {
          "internalType": "uint256[]",
          "name": "ids",
          "type": "uint256[]"
        },
        {
          "internalType": "uint256[]",
          "name": "amounts",
          "type": "uint256[]"
        },
        {
          "internalType": "bytes",
          "name": "data",
          "type": "bytes"
        }
      ],
      "name": "safeBatchTransferFrom",
      "outputs": [],
      "stateMutability": "nonpayable",
      "type": "function"
    },
    {
      "inputs": [
        {
          "internalType": "address",
          "name": "from",
          "type": "address"
        },
        {
          "internalType": "address",
          "name": "to",
          "type": "address"
        },
        {
          "internalType": "uint256",
          "name": "id",
          "type": "uint256"
        },
        {
          "internalType": "uint256",
          "name": "amount",
          "type": "uint256"
        },
        {
          "internalType": "bytes",
          "name": "data",
          "type": "bytes"
        }
      ],
      "name": "safeTransferFrom",
      "outputs": [],
      "stateMutability": "nonpayable",
      "type": "function"
    },
    {
      "inputs": [
        {
          "internalType": "address",
          "name": "operator",
          "type": "address"
        },
        {
          "internalType": "bool",
          "name": "approved",
          "type": "bool"
        }
      ],
      "name": "setApprovalForAll",
      "outputs": [],
      "stateMutability": "nonpayable",
      "type": "function"
    },
    {
      "inputs": [
        {
          "internalType": "bytes4",
          "name": "interfaceId",
          "type": "bytes4"
        }
      ],
      "name": "supportsInterface",
      "outputs": [
        {
          "internalType": "bool",
          "name": "",
          "type": "bool"
        }
      ],
      "stateMutability": "view",
      "type": "function",
      "constant": true
    },
    {
      "inputs": [
        {
          "internalType": "uint256",
          "name": "",
          "type": "uint256"
        }
      ],
      "name": "uri",
      "outputs": [
        {
          "internalType": "string",
          "name": "",
          "type": "string"
        }
      ],
      "stateMutability": "view",
      "type": "function",
      "constant": true
    },
    {
      "inputs": [
        {
          "internalType": "uint256",
          "name": "completed",
          "type": "uint256"
        }
      ],
      "name": "setCompleted",
      "outputs": [],
      "stateMutability": "nonpayable",
      "type": "function"
    },
    {
      "inputs": [
        {
          "internalType": "address",
          "name": "new_address",
          "type": "address"
        }
      ],
      "name": "upgrade",
      "outputs": [],
      "stateMutability": "nonpayable",
      "type": "function"
    }
  ],
  "bytecode": "0x60806040523480156200001157600080fd5b5060405180606001604052806027815260200162002bbe602791396200003d816200004460201b60201c565b50620003ba565b8060029081620000559190620002d3565b5050565b600081519050919050565b7f4e487b7100000000000000000000000000000000000000000000000000000000600052604160045260246000fd5b7f4e487b7100000000000000000000000000000000000000000000000000000000600052602260045260246000fd5b60006002820490506001821680620000db57607f821691505b602082108103620000f157620000f062000093565b5b50919050565b60008190508160005260206000209050919050565b60006020601f8301049050919050565b600082821b905092915050565b6000600883026200015b7fffffffffffffffffffffffffffffffffffffffffffffffffffffffffffffffff826200011c565b6200016786836200011c565b95508019841693508086168417925050509392505050565b6000819050919050565b6000819050919050565b6000620001b4620001ae620001a8846200017f565b62000189565b6200017f565b9050919050565b6000819050919050565b620001d08362000193565b620001e8620001df82620001bb565b84845462000129565b825550505050565b600090565b620001ff620001f0565b6200020c818484620001c5565b505050565b5b81811015620002345762000228600082620001f5565b60018101905062000212565b5050565b601f82111562000283576200024d81620000f7565b62000258846200010c565b8101602085101562000268578190505b6200028062000277856200010c565b83018262000211565b50505b505050565b600082821c905092915050565b6000620002a86000198460080262000288565b1980831691505092915050565b6000620002c3838362000295565b9150826002028217905092915050565b620002de8262000059565b67ffffffffffffffff811115620002fa57620002f962000064565b5b620003068254620000c2565b6200031382828562000238565b600060209050601f8311600181146200034b576000841562000336578287015190505b620003428582620002b5565b865550620003b2565b601f1984166200035b86620000f7565b60005b8281101562000385578489015182556001820191506020850194506020810190506200035e565b86831015620003a55784890151620003a1601f89168262000295565b8355505b6001600288020188555050505b505050505050565b6127f480620003ca6000396000f3fe608060405234801561001057600080fd5b50600436106100b35760003560e01c80634e1273f4116100715780634e1273f41461019e5780638da5cb5b146101ce578063a22cb465146101ec578063e985e9c514610208578063f242432a14610238578063fdacd57614610254576100b3565b8062fdd58e146100b857806301ffc9a7146100e85780630900f010146101185780630e89341c146101345780632eb2c2d614610164578063445df0ac14610180575b600080fd5b6100d260048036038101906100cd91906115a8565b610270565b6040516100df91906115f7565b60405180910390f35b61010260048036038101906100fd919061166a565b610338565b60405161010f91906116b2565b60405180910390f35b610132600480360381019061012d91906116cd565b61041a565b005b61014e600480360381019061014991906116fa565b6104e6565b60405161015b91906117c0565b60405180910390f35b61017e600480360381019061017991906119df565b61057a565b005b61018861061b565b60405161019591906115f7565b60405180910390f35b6101b860048036038101906101b39190611b71565b610621565b6040516101c59190611ca7565b60405180910390f35b6101d661073a565b6040516101e39190611cd8565b60405180910390f35b61020660048036038101906102019190611d1f565b610760565b005b610222600480360381019061021d9190611d5f565b610776565b60405161022f91906116b2565b60405180910390f35b610252600480360381019061024d9190611d9f565b61080a565b005b61026e600480360381019061026991906116fa565b6108ab565b005b60008073ffffffffffffffffffffffffffffffffffffffff168373ffffffffffffffffffffffffffffffffffffffff16036102e0576040517f08c379a00000000000000000000000000000000000000000000000000000000081526004016102d790611ea8565b60405180910390fd5b60008083815260200190815260200160002060008473ffffffffffffffffffffffffffffffffffffffff1673ffffffffffffffffffffffffffffffffffffffff16815260200190815260200160002054905092915050565b60007fd9b67a26000000000000000000000000000000000000000000000000000000007bffffffffffffffffffffffffffffffffffffffffffffffffffffffff1916827bffffffffffffffffffffffffffffffffffffffffffffffffffffffff1916148061040357507f0e89341c000000000000000000000000000000000000000000000000000000007bffffffffffffffffffffffffffffffffffffffffffffffffffffffff1916827bffffffffffffffffffffffffffffffffffffffffffffffffffffffff1916145b8061041357506104128261090b565b5b9050919050565b600360009054906101000a900473ffffffffffffffffffffffffffffffffffffffff1673ffffffffffffffffffffffffffffffffffffffff163373ffffffffffffffffffffffffffffffffffffffff16036104e35760008190508073ffffffffffffffffffffffffffffffffffffffff1663fdacd5766004546040518263ffffffff1660e01b81526004016104af91906115f7565b600060405180830381600087803b1580156104c957600080fd5b505af11580156104dd573d6000803e3d6000fd5b50505050505b50565b6060600280546104f590611ef7565b80601f016020809104026020016040519081016040528092919081815260200182805461052190611ef7565b801561056e5780601f106105435761010080835404028352916020019161056e565b820191906000526020600020905b81548152906001019060200180831161055157829003601f168201915b50505050509050919050565b610582610975565b73ffffffffffffffffffffffffffffffffffffffff168573ffffffffffffffffffffffffffffffffffffffff1614806105c857506105c7856105c2610975565b610776565b5b610607576040517f08c379a00000000000000000000000000000000000000000000000000000000081526004016105fe90611f9a565b60405180910390fd5b610614858585858561097d565b5050505050565b60045481565b60608151835114610667576040517f08c379a000000000000000000000000000000000000000000000000000000000815260040161065e9061202c565b60405180910390fd5b6000835167ffffffffffffffff811115610684576106836117e7565b5b6040519080825280602002602001820160405280156106b25781602001602082028036833780820191505090505b50905060005b845181101561072f576106ff8582815181106106d7576106d661204c565b5b60200260200101518583815181106106f2576106f161204c565b5b6020026020010151610270565b8282815181106107125761071161204c565b5b60200260200101818152505080610728906120aa565b90506106b8565b508091505092915050565b600360009054906101000a900473ffffffffffffffffffffffffffffffffffffffff1681565b61077261076b610975565b8383610c9e565b5050565b6000600160008473ffffffffffffffffffffffffffffffffffffffff1673ffffffffffffffffffffffffffffffffffffffff16815260200190815260200160002060008373ffffffffffffffffffffffffffffffffffffffff1673ffffffffffffffffffffffffffffffffffffffff16815260200190815260200160002060009054906101000a900460ff16905092915050565b610812610975565b73ffffffffffffffffffffffffffffffffffffffff168573ffffffffffffffffffffffffffffffffffffffff161480610858575061085785610852610975565b610776565b5b610897576040517f08c379a000000000000000000000000000000000000000000000000000000000815260040161088e90612164565b60405180910390fd5b6108a48585858585610e0a565b5050505050565b600360009054906101000a900473ffffffffffffffffffffffffffffffffffffffff1673ffffffffffffffffffffffffffffffffffffffff163373ffffffffffffffffffffffffffffffffffffffff160361090857806004819055505b50565b60007f01ffc9a7000000000000000000000000000000000000000000000000000000007bffffffffffffffffffffffffffffffffffffffffffffffffffffffff1916827bffffffffffffffffffffffffffffffffffffffffffffffffffffffff1916149050919050565b600033905090565b81518351146109c1576040517f08c379a00000000000000000000000000000000000000000000000000000000081526004016109b8906121f6565b60405180910390fd5b600073ffffffffffffffffffffffffffffffffffffffff168473ffffffffffffffffffffffffffffffffffffffff1603610a30576040517f08c379a0000000000000000000000000000000000000000000000000000000008152600401610a2790612288565b60405180910390fd5b6000610a3a610975565b9050610a4a8187878787876110a5565b60005b8451811015610bfb576000858281518110610a6b57610a6a61204c565b5b602002602001015190506000858381518110610a8a57610a8961204c565b5b60200260200101519050600080600084815260200190815260200160002060008b73ffffffffffffffffffffffffffffffffffffffff1673ffffffffffffffffffffffffffffffffffffffff16815260200190815260200160002054905081811015610b2b576040517f08c379a0000000000000000000000000000000000000000000000000000000008152600401610b229061231a565b60405180910390fd5b81810360008085815260200190815260200160002060008c73ffffffffffffffffffffffffffffffffffffffff1673ffffffffffffffffffffffffffffffffffffffff168152602001908152602001600020819055508160008085815260200190815260200160002060008b73ffffffffffffffffffffffffffffffffffffffff1673ffffffffffffffffffffffffffffffffffffffff1681526020019081526020016000206000828254610be0919061233a565b9250508190555050505080610bf4906120aa565b9050610a4d565b508473ffffffffffffffffffffffffffffffffffffffff168673ffffffffffffffffffffffffffffffffffffffff168273ffffffffffffffffffffffffffffffffffffffff167f4a39dc06d4c0dbc64b70af90fd698a233a518aa5d07e595d983b8c0526c8f7fb8787604051610c72929190612390565b60405180910390a4610c888187878787876110ad565b610c968187878787876110b5565b505050505050565b8173ffffffffffffffffffffffffffffffffffffffff168373ffffffffffffffffffffffffffffffffffffffff1603610d0c576040517f08c379a0000000000000000000000000000000000000000000000000000000008152600401610d0390612439565b60405180910390fd5b80600160008573ffffffffffffffffffffffffffffffffffffffff1673ffffffffffffffffffffffffffffffffffffffff16815260200190815260200160002060008473ffffffffffffffffffffffffffffffffffffffff1673ffffffffffffffffffffffffffffffffffffffff16815260200190815260200160002060006101000a81548160ff0219169083151502179055508173ffffffffffffffffffffffffffffffffffffffff168373ffffffffffffffffffffffffffffffffffffffff167f17307eab39ab6107e8899845ad3d59bd9653f200f220920489ca2b5937696c3183604051610dfd91906116b2565b60405180910390a3505050565b600073ffffffffffffffffffffffffffffffffffffffff168473ffffffffffffffffffffffffffffffffffffffff1603610e79576040517f08c379a0000000000000000000000000000000000000000000000000000000008152600401610e7090612288565b60405180910390fd5b6000610e83610975565b90506000610e908561128c565b90506000610e9d8561128c565b9050610ead8389898585896110a5565b600080600088815260200190815260200160002060008a73ffffffffffffffffffffffffffffffffffffffff1673ffffffffffffffffffffffffffffffffffffffff16815260200190815260200160002054905085811015610f44576040517f08c379a0000000000000000000000000000000000000000000000000000000008152600401610f3b9061231a565b60405180910390fd5b85810360008089815260200190815260200160002060008b73ffffffffffffffffffffffffffffffffffffffff1673ffffffffffffffffffffffffffffffffffffffff168152602001908152602001600020819055508560008089815260200190815260200160002060008a73ffffffffffffffffffffffffffffffffffffffff1673ffffffffffffffffffffffffffffffffffffffff1681526020019081526020016000206000828254610ff9919061233a565b925050819055508773ffffffffffffffffffffffffffffffffffffffff168973ffffffffffffffffffffffffffffffffffffffff168573ffffffffffffffffffffffffffffffffffffffff167fc3d58168c5ae7397731d063d5bbf3d657854427343f4c083240f7aacaa2d0f628a8a604051611076929190612459565b60405180910390a461108c848a8a86868a6110ad565b61109a848a8a8a8a8a611306565b505050505050505050565b505050505050565b505050505050565b6110d48473ffffffffffffffffffffffffffffffffffffffff166114dd565b15611284578373ffffffffffffffffffffffffffffffffffffffff1663bc197c8187878686866040518663ffffffff1660e01b815260040161111a9594939291906124d7565b6020604051808303816000875af192505050801561115657506040513d601f19601f820116820180604052508101906111539190612554565b60015b6111fb5761116261258e565b806308c379a0036111be57506111766125b0565b8061118157506111c0565b806040517f08c379a00000000000000000000000000000000000000000000000000000000081526004016111b591906117c0565b60405180910390fd5b505b6040517f08c379a00000000000000000000000000000000000000000000000000000000081526004016111f2906126b2565b60405180910390fd5b63bc197c8160e01b7bffffffffffffffffffffffffffffffffffffffffffffffffffffffff1916817bffffffffffffffffffffffffffffffffffffffffffffffffffffffff191614611282576040517f08c379a000000000000000000000000000000000000000000000000000000000815260040161127990612744565b60405180910390fd5b505b505050505050565b60606000600167ffffffffffffffff8111156112ab576112aa6117e7565b5b6040519080825280602002602001820160405280156112d95781602001602082028036833780820191505090505b50905082816000815181106112f1576112f061204c565b5b60200260200101818152505080915050919050565b6113258473ffffffffffffffffffffffffffffffffffffffff166114dd565b156114d5578373ffffffffffffffffffffffffffffffffffffffff1663f23a6e6187878686866040518663ffffffff1660e01b815260040161136b959493929190612764565b6020604051808303816000875af19250505080156113a757506040513d601f19601f820116820180604052508101906113a49190612554565b60015b61144c576113b361258e565b806308c379a00361140f57506113c76125b0565b806113d25750611411565b806040517f08c379a000000000000000000000000000000000000000000000000000000000815260040161140691906117c0565b60405180910390fd5b505b6040517f08c379a0000000000000000000000000000000000000000000000000000000008152600401611443906126b2565b60405180910390fd5b63f23a6e6160e01b7bffffffffffffffffffffffffffffffffffffffffffffffffffffffff1916817bffffffffffffffffffffffffffffffffffffffffffffffffffffffff1916146114d3576040517f08c379a00000000000000000000000000000000000000000000000000000000081526004016114ca90612744565b60405180910390fd5b505b505050505050565b6000808273ffffffffffffffffffffffffffffffffffffffff163b119050919050565b6000604051905090565b600080fd5b600080fd5b600073ffffffffffffffffffffffffffffffffffffffff82169050919050565b600061153f82611514565b9050919050565b61154f81611534565b811461155a57600080fd5b50565b60008135905061156c81611546565b92915050565b6000819050919050565b61158581611572565b811461159057600080fd5b50565b6000813590506115a28161157c565b92915050565b600080604083850312156115bf576115be61150a565b5b60006115cd8582860161155d565b92505060206115de85828601611593565b9150509250929050565b6115f181611572565b82525050565b600060208201905061160c60008301846115e8565b92915050565b60007fffffffff0000000000000000000000000000000000000000000000000000000082169050919050565b61164781611612565b811461165257600080fd5b50565b6000813590506116648161163e565b92915050565b6000602082840312156116805761167f61150a565b5b600061168e84828501611655565b91505092915050565b60008115159050919050565b6116ac81611697565b82525050565b60006020820190506116c760008301846116a3565b92915050565b6000602082840312156116e3576116e261150a565b5b60006116f18482850161155d565b91505092915050565b6000602082840312156117105761170f61150a565b5b600061171e84828501611593565b91505092915050565b600081519050919050565b600082825260208201905092915050565b60005b83811015611761578082015181840152602081019050611746565b83811115611770576000848401525b50505050565b6000601f19601f8301169050919050565b600061179282611727565b61179c8185611732565b93506117ac818560208601611743565b6117b581611776565b840191505092915050565b600060208201905081810360008301526117da8184611787565b905092915050565b600080fd5b7f4e487b7100000000000000000000000000000000000000000000000000000000600052604160045260246000fd5b61181f82611776565b810181811067ffffffffffffffff8211171561183e5761183d6117e7565b5b80604052505050565b6000611851611500565b905061185d8282611816565b919050565b600067ffffffffffffffff82111561187d5761187c6117e7565b5b602082029050602081019050919050565b600080fd5b60006118a66118a184611862565b611847565b905080838252602082019050602084028301858111156118c9576118c861188e565b5b835b818110156118f257806118de8882611593565b8452602084019350506020810190506118cb565b5050509392505050565b600082601f830112611911576119106117e2565b5b8135611921848260208601611893565b91505092915050565b600080fd5b600067ffffffffffffffff82111561194a576119496117e7565b5b61195382611776565b9050602081019050919050565b82818337600083830152505050565b600061198261197d8461192f565b611847565b90508281526020810184848401111561199e5761199d61192a565b5b6119a9848285611960565b509392505050565b600082601f8301126119c6576119c56117e2565b5b81356119d684826020860161196f565b91505092915050565b600080600080600060a086880312156119fb576119fa61150a565b5b6000611a098882890161155d565b9550506020611a1a8882890161155d565b945050604086013567ffffffffffffffff811115611a3b57611a3a61150f565b5b611a47888289016118fc565b935050606086013567ffffffffffffffff811115611a6857611a6761150f565b5b611a74888289016118fc565b925050608086013567ffffffffffffffff811115611a9557611a9461150f565b5b611aa1888289016119b1565b9150509295509295909350565b600067ffffffffffffffff821115611ac957611ac86117e7565b5b602082029050602081019050919050565b6000611aed611ae884611aae565b611847565b90508083825260208201905060208402830185811115611b1057611b0f61188e565b5b835b81811015611b395780611b25888261155d565b845260208401935050602081019050611b12565b5050509392505050565b600082601f830112611b5857611b576117e2565b5b8135611b68848260208601611ada565b91505092915050565b60008060408385031215611b8857611b8761150a565b5b600083013567ffffffffffffffff811115611ba657611ba561150f565b5b611bb285828601611b43565b925050602083013567ffffffffffffffff811115611bd357611bd261150f565b5b611bdf858286016118fc565b9150509250929050565b600081519050919050565b600082825260208201905092915050565b6000819050602082019050919050565b611c1e81611572565b82525050565b6000611c308383611c15565b60208301905092915050565b6000602082019050919050565b6000611c5482611be9565b611c5e8185611bf4565b9350611c6983611c05565b8060005b83811015611c9a578151611c818882611c24565b9750611c8c83611c3c565b925050600181019050611c6d565b5085935050505092915050565b60006020820190508181036000830152611cc18184611c49565b905092915050565b611cd281611534565b82525050565b6000602082019050611ced6000830184611cc9565b92915050565b611cfc81611697565b8114611d0757600080fd5b50565b600081359050611d1981611cf3565b92915050565b60008060408385031215611d3657611d3561150a565b5b6000611d448582860161155d565b9250506020611d5585828601611d0a565b9150509250929050565b60008060408385031215611d7657611d7561150a565b5b6000611d848582860161155d565b9250506020611d958582860161155d565b9150509250929050565b600080600080600060a08688031215611dbb57611dba61150a565b5b6000611dc98882890161155d565b9550506020611dda8882890161155d565b9450506040611deb88828901611593565b9350506060611dfc88828901611593565b925050608086013567ffffffffffffffff811115611e1d57611e1c61150f565b5b611e29888289016119b1565b9150509295509295909350565b7f455243313135353a2062616c616e636520717565727920666f7220746865207a60008201527f65726f2061646472657373000000000000000000000000000000000000000000602082015250565b6000611e92602b83611732565b9150611e9d82611e36565b604082019050919050565b60006020820190508181036000830152611ec181611e85565b9050919050565b7f4e487b7100000000000000000000000000000000000000000000000000000000600052602260045260246000fd5b60006002820490506001821680611f0f57607f821691505b602082108103611f2257611f21611ec8565b5b50919050565b7f455243313135353a207472616e736665722063616c6c6572206973206e6f742060008201527f6f776e6572206e6f7220617070726f7665640000000000000000000000000000602082015250565b6000611f84603283611732565b9150611f8f82611f28565b604082019050919050565b60006020820190508181036000830152611fb381611f77565b9050919050565b7f455243313135353a206163636f756e747320616e6420696473206c656e67746860008201527f206d69736d617463680000000000000000000000000000000000000000000000602082015250565b6000612016602983611732565b915061202182611fba565b604082019050919050565b6000602082019050818103600083015261204581612009565b9050919050565b7f4e487b7100000000000000000000000000000000000000000000000000000000600052603260045260246000fd5b7f4e487b7100000000000000000000000000000000000000000000000000000000600052601160045260246000fd5b60006120b582611572565b91507fffffffffffffffffffffffffffffffffffffffffffffffffffffffffffffffff82036120e7576120e661207b565b5b600182019050919050565b7f455243313135353a2063616c6c6572206973206e6f74206f776e6572206e6f7260008201527f20617070726f7665640000000000000000000000000000000000000000000000602082015250565b600061214e602983611732565b9150612159826120f2565b604082019050919050565b6000602082019050818103600083015261217d81612141565b9050919050565b7f455243313135353a2069647320616e6420616d6f756e7473206c656e6774682060008201527f6d69736d61746368000000000000000000000000000000000000000000000000602082015250565b60006121e0602883611732565b91506121eb82612184565b604082019050919050565b6000602082019050818103600083015261220f816121d3565b9050919050565b7f455243313135353a207472616e7366657220746f20746865207a65726f20616460008201527f6472657373000000000000000000000000000000000000000000000000000000602082015250565b6000612272602583611732565b915061227d82612216565b604082019050919050565b600060208201905081810360008301526122a181612265565b9050919050565b7f455243313135353a20696e73756666696369656e742062616c616e636520666f60008201527f72207472616e7366657200000000000000000000000000000000000000000000602082015250565b6000612304602a83611732565b915061230f826122a8565b604082019050919050565b60006020820190508181036000830152612333816122f7565b9050919050565b600061234582611572565b915061235083611572565b9250827fffffffffffffffffffffffffffffffffffffffffffffffffffffffffffffffff038211156123855761238461207b565b5b828201905092915050565b600060408201905081810360008301526123aa8185611c49565b905081810360208301526123be8184611c49565b90509392505050565b7f455243313135353a2073657474696e6720617070726f76616c2073746174757360008201527f20666f722073656c660000000000000000000000000000000000000000000000602082015250565b6000612423602983611732565b915061242e826123c7565b604082019050919050565b6000602082019050818103600083015261245281612416565b9050919050565b600060408201905061246e60008301856115e8565b61247b60208301846115e8565b9392505050565b600081519050919050565b600082825260208201905092915050565b60006124a982612482565b6124b3818561248d565b93506124c3818560208601611743565b6124cc81611776565b840191505092915050565b600060a0820190506124ec6000830188611cc9565b6124f96020830187611cc9565b818103604083015261250b8186611c49565b9050818103606083015261251f8185611c49565b90508181036080830152612533818461249e565b90509695505050505050565b60008151905061254e8161163e565b92915050565b60006020828403121561256a5761256961150a565b5b60006125788482850161253f565b91505092915050565b60008160e01c9050919050565b600060033d11156125ad5760046000803e6125aa600051612581565b90505b90565b600060443d1061263d576125c2611500565b60043d036004823e80513d602482011167ffffffffffffffff821117156125ea57505061263d565b808201805167ffffffffffffffff811115612608575050505061263d565b80602083010160043d03850181111561262557505050505061263d565b61263482602001850186611816565b82955050505050505b90565b7f455243313135353a207472616e7366657220746f206e6f6e204552433131353560008201527f526563656976657220696d706c656d656e746572000000000000000000000000602082015250565b600061269c603483611732565b91506126a782612640565b604082019050919050565b600060208201905081810360008301526126cb8161268f565b9050919050565b7f455243313135353a204552433131353552656365697665722072656a6563746560008201527f6420746f6b656e73000000000000000000000000000000000000000000000000602082015250565b600061272e602883611732565b9150612739826126d2565b604082019050919050565b6000602082019050818103600083015261275d81612721565b9050919050565b600060a0820190506127796000830188611cc9565b6127866020830187611cc9565b61279360408301866115e8565b6127a060608301856115e8565b81810360808301526127b2818461249e565b9050969550505050505056fea2646970667358221220c92a335fe0a01d23d08446226f9f8f4785368aa9fc913d004c6e08dd0505de3164736f6c634300080f003368747470733a2f2f67616d652e6578616d706c652f6170692f6974656d2f7b69647d2e6a736f6e",
  "immutableReferences": {},
  "source": "pragma solidity ^0.8.0;\n\nimport \"openzeppelin-solidity/contracts/token/ERC1155/ERC1155.sol\";\n\ncontract Migrations is ERC1155  {\n  address public owner;\n  uint public last_completed_migration;\n\n  constructor() ERC1155(\"https://game.example/api/item/{id}.json\") {\n        // _mint(msg.sender, GOLD, 10**18, \"\");\n        // _mint(msg.sender, SILVER, 10**27, \"\");\n        // _mint(msg.sender, THORS_HAMMER, 1, \"\");\n        // _mint(msg.sender, SWORD, 10**9, \"\");\n        // _mint(msg.sender, SHIELD, 10**9, \"\");\n    }\n\n  modifier restricted() {\n    if (msg.sender == owner) _;\n  }\n\n  function setCompleted(uint completed) public restricted {\n    last_completed_migration = completed;\n  }\n\n  function upgrade(address new_address) public restricted {\n    Migrations upgraded = Migrations(new_address);\n    upgraded.setCompleted(last_completed_migration);\n  }\n}\n",
  "sourcePath": "/home/sa/Desktop/TopBlock/topblock/contracts/Migrations.sol",
  "compiler": {
    "name": "solc",
    "version": "0.8.15+commit.e14f2714.Emscripten.clang"
  },
  "schemaVersion": "3.4.7",
  "updatedAt": "2022-06-19T03:14:59.871Z",
  "networkType": "ethereum",
  "devdoc": {
    "kind": "dev",
    "methods": {
      "balanceOf(address,uint256)": {
        "details": "See {IERC1155-balanceOf}. Requirements: - `account` cannot be the zero address."
      },
      "balanceOfBatch(address[],uint256[])": {
        "details": "See {IERC1155-balanceOfBatch}. Requirements: - `accounts` and `ids` must have the same length."
      },
      "isApprovedForAll(address,address)": {
        "details": "See {IERC1155-isApprovedForAll}."
      },
      "safeBatchTransferFrom(address,address,uint256[],uint256[],bytes)": {
        "details": "See {IERC1155-safeBatchTransferFrom}."
      },
      "safeTransferFrom(address,address,uint256,uint256,bytes)": {
        "details": "See {IERC1155-safeTransferFrom}."
      },
      "setApprovalForAll(address,bool)": {
        "details": "See {IERC1155-setApprovalForAll}."
      },
      "supportsInterface(bytes4)": {
        "details": "See {IERC165-supportsInterface}."
      },
      "uri(uint256)": {
        "details": "See {IERC1155MetadataURI-uri}. This implementation returns the same URI for *all* token types. It relies on the token type ID substitution mechanism https://eips.ethereum.org/EIPS/eip-1155#metadata[defined in the EIP]. Clients calling this function must replace the `\\{id\\}` substring with the actual token type ID."
      }
    },
    "version": 1
  },
  "userdoc": {
    "kind": "user",
    "methods": {},
    "version": 1
  }
}